:020000040000fa
:080000000002040000000000f2
:020000040000fa
:10000800a6020000a6020000a6020000a602000048
:10001800a6020000a6020000a6020000a602000038
:10002800a6020000a6020000a6020000a602000028
:10003800a6020000a6020000a6020000a602000018
:100048000a3e0000a6020000a6020000743b000061
:10005800a6020000a6020000a6020000a6020000f8
:10006800a6020000a6020000a6020000a6020000e8
:10007800a6020000a6020000a6020000a6020000d8
:10008800a6020000a6020000a6020000a6020000c8
:10009800a6020000a6020000a6020000a6020000b8
:1000a800a6020000a6020000a6020000a6020000a8
:1000b800a6020000a6020000a6020000a602000098
:1000c800a6020000a6020000a6020000a602000088
:1000d800a6020000a6020000a6020000a602000078
:1000e800a6020000a6020000a6020000a602000068
:1000f800a6020000a6020000a6020000a602000058
:10010800a6020000a6020000a6020000a602000047
:10011800a6020000a6020000a6020000a602000037
:10012800a6020000a6020000a6020000a602000027
:10013800a6020000a6020000a6020000a602000017
:10014800a6020000a6020000a6020000a602000007
:10015800a6020000a6020000a6020000a6020000f7
:10016800a6020000a6020000a6020000a6020000e7
:10017800a6020000a6020000a6020000a6020000d7
:10018800a6020000a6020000a6020000a6020000c7
:10019800a6020000a6020000a6020000a6020000b7
:1001a800a6020000a6020000a6020000a6020000a7
:1001b800a6020000a6020000a6020000a602000097
:1001c800a6020000a6020000a6020000a602000087
:1001d800a6020000a6020000a6020000a602000077
:1001e800a6020000a6020000a6020000a602000067
:0801f800a6020000a6020000af
:020000040000fa
:10020800a6020000a6020000a6020000a602000046
:10021800a6020000a6020000a6020000a602000036
:10022800a6020000a6020000a6020000a602000026
:10023800a6020000a6020000a6020000a602000016
:100248000a3e0000a6020000a6020000743b00005f
:10025800a6020000a6020000a6020000a6020000f6
:10026800a6020000a6020000a6020000a6020000e6
:10027800a6020000a6020000a6020000a6020000d6
:10028800a6020000a6020000a6020000a6020000c6
:10029800a6020000a6020000a6020000a6020000b6
:1002a800a6020000a6020000a6020000a6020000a6
:1002b800a6020000a6020000a6020000a602000096
:1002c800a6020000a6020000a6020000a602000086
:1002d800a6020000a6020000a6020000a602000076
:1002e800a6020000a6020000a6020000a602000066
:1002f800a6020000a6020000a6020000a602000056
:10030800a6020000a6020000a6020000a602000045
:10031800a6020000a6020000a6020000a602000035
:10032800a6020000a6020000a6020000a602000025
:10033800a6020000a6020000a6020000a602000015
:10034800a6020000a6020000a6020000a602000005
:10035800a6020000a6020000a6020000a6020000f5
:10036800a6020000a6020000a6020000a6020000e5
:10037800a6020000a6020000a6020000a6020000d5
:10038800a6020000a6020000a6020000a6020000c5
:10039800a6020000a6020000a6020000a6020000b5
:1003a800a6020000a6020000a6020000a6020000a5
:1003b800a6020000a6020000a6020000a602000095
:1003c800a6020000a6020000a6020000a602000085
:1003d800a6020000a6020000a6020000a602000075
:1003e800a6020000a6020000a6020000a602000065
:0803f800a6020000a6020000ad
:020000040000fa
:100400006f1021000e7f22000e0188000000000006
:10041000000020000000e000020032000001200087
:10042000200288000c00070020802200010020002c
:1004300011000700000020000000e0000200320070
:100440000000020000000000504102000000000017
:100450000040da000000fe004440a900003b2000fc
:100460000000e0000300320000002000a00188002e
:100470004440a80000000600910188008000780038
:100480000000eb0015003700e280400032a0b4000d
:100490009101ba00e280400032a0b4009102ba009b
:1004a000e280400032a0b4000002eb00472bde00e7
:1004b000f507b200602ce10004003a000059eb009f
:1004c0008301e900fdff3e00040037006128e100e0
:1004d000010032000082eb00040007001101ba00a5
:1004e0000200e000e8ff3a00000006003159ba00bf
:1004f0008301e9000c0032002159ba008301e900b0
:10050000080032000400e00003003a00e2804000ee
:1005100032a0b400f5ff370011d9ba008301e90019
:10052000faff3a008100e800e180400032a0b40008
:1005300000000600000000000000000000000000b5
:100540000000000000000000000000000040da0091
:100550000000fe002002e20004003d002342ab0048
:10056000020032002302ab00feff32000040da003e
:10057000feff37000a00fa0011002000b1bf9f0003
:10058000c0bf9f006a805700240e07004fb8970035
:100590000080fa00000006000a00fa00e20f500096
:1005a00020003e0010888000e10f5000060032005d
:1005b0008023200045232000232320000423200043
:1005c0000000e00004003a008022200045222000c4
:1005d00023222000042220000600280014036300c8
:1005e00003003a000608780000002800140a700092
:1005f00013a8a30001003a0013a0a0000200780095
:10060000050037001388a300feff32003102fb0013
:10061000840a78000000e9000000e000f9ff3a00d9
:100620000800370033002000b3bf9f00c0bf9f0009
:10063000d1bf9f00e2bf9f006a805700f90d0700fd
:100640006fb99700020078000080fa0000000600f1
:100650000a00fa0051002000b1bf9f00c0bf9f00f8
:100660006a805700f10d07005fb897000080fa001c
:1006700000000600889fbe0080047800208880006b
:100680000000e00004003a000e0007000084eb00c8
:100690000000e00008003500288880000900e00024
:1006a0000500320009004400060007000000e000d9
:1006b00001003d000084eb00080078004f04be00fc
:1006c00000000600800078000100e00003003a000e
:1006d0000000200020888800000005000080eb005a
:1006e00002002000828f500002003e002188880016
:1006f0000000eb000000060003f0a200889fbe008f
:100700008a9fbe008c1f7800020107000901330098
:100710006450e1004f0032006420e10052003200da
:1007200003826c0007003b000905d0000306d000df
:10073000820f54000c065d000200390002003200f6
:1007400089017800030678008582550004003d0089
:100750000003fd008103fd008502ea008b85420055
:10076000840f720002003b0060001000e08018005f
:100770006011b8000005eb007a28e1000a0039009a
:1007800006007800c75ddd00f707b20087807500be
:100790002d003700828171000a0178006105600038
:1007a0008180d1000080d3008502e900f9ff3b0081
:1007b000060440008784480002003b0060041400e7
:1007c000e0841c000988a300070032008a817100c0
:1007d00082817100610164008904d1000884d30022
:1007e0008b05e800170037000978a30013003a00d2
:1007f0000b00e000130034008b05e90008044400fe
:1008000089844c000a4474000978a3000d003a0062
:100810000b00e000070034008b05e90008044400e9
:1008200089844c0001003a000b0020000978a300e5
:10083000f7ff32000001eb000200370082817100f7
:100840000a017800780007000cf0a70001f0a00072
:10085000c10037006420e10002003a00838f6c0081
:10086000c10033000801be000200be00ba0037001c
:10087000889fbe008a9fbe008c1f7800a5000700dd
:10088000ac00330003866c006450e1002e0032009f
:100890006420e100330032006150e1002f0032009b
:1008a0006120e1003100320085855500eb07b00082
:1008b0000900200008042000050037000804440057
:1008c00089844c000a0031000603430087834b00f3
:1008d0000001530081815b00f8ff33000203be007a
:1008e0000800a0000804440089844c00f6ff390089
:1008f000c639dd00830173000100320013002000bf
:100900008904d1000884d3000998a30005003200af
:100910000800a7000300a0008904d1000884d300c8
:100920008b05e8008904d1000884d3000001eb00a6
:100930000281d2003c00070001f0a1000cf0a700ea
:1009400001f0a000840037006420e100860032003e
:100950000801be000200be00f7ff37006120e10081
:10096000810032006000b800f3ff37000000200073
:1009700001f82700f0ff3700839f68000100e000c6
:1009800002003d0060001000e08018000300e0005d
:1009900002003d0060011100e0811900b80007006d
:1009a0004f00e00002003b0060001000e0801800f3
:1009b000000006000001be00410007000470a7000f
:1009c00003f0a10003f8a30013003a006509b10089
:1009d00010003200090035006928e10002003500ee
:1009e0000100280000000500000040008180480050
:1009f0008502e900fcff3a0000000600f88f420083
:100a0000050035008100d1000080d3008502e80098
:100a1000fcff3a00000006008000eb00000005002b
:100a20006011b800d40137008100200061805500ba
:100a30000b003d000b00200061fe2f000100e100d3
:100a40001d00340082817100610164008904d100bd
:100a50000884d3000000e800faff3a00710020008b
:100a600061006400030070000200600009003200b1
:100a700061044400e0844c000988a50005003200b0
:100a80008b05e8006808e10002003a008904d10003
:100a90000884d300f20f20000258e10005003d0059
:100aa000c75ddd00f907b200898075000800780095
:100ab000000006000bf827008b00780000000500fe
:100ac000c70ade00f107b200f50fb20008003200dd
:100ad000e1cf4200020032000170a00024000500b6
:100ae000810f700001003200040805004400050079
:100af000810f700002003a00140005008502e90031
:100b00000000400081c04800fcff3b000170a000d5
:100b1000240005000004be00e9ff07000003be003a
:100b20000405be000200be00e5ff0700844f75000b
:100b3000000006000200be006450e100050036001f
:100b40006420e100020036000968a30001003a00b9
:100b50000800be000160a0004f0678004f05be00ef
:100b60004f04be0000000600f0ff2f00f1ff270039
:100b7000f9ff3700811f78000100e00002003d000e
:100b800060001000e08018000300e00002003d005b
:100b900060011100e0811900490007004f00e000ea
:100ba00002003b0060001000e0801800000006001a
:100bb000889fbe008a9fbe008c1f7800d5ff07006b
:100bc000dcff330003866c006450e1002400320037
:100bd0006420e100270032006150e1002200320071
:100be0006120e100210032008b854200eb07b1005b
:100bf0000134b800003ab8000804420089844a0071
:100c0000013ab8000030b8008880400009014a006d
:100c100004003300000040008180480002014900c8
:100c20008b05e900c909dd00830170000100320075
:100c300013002000c814de004814dd004709de0060
:100c40001200b200c808de000884700076ff0700ba
:100c500001f0a1000cf0a70001f0a000beff3700da
:100c60006120e100c0ff32000801be000200be00aa
:100c7000f7ff37006150e100fcff3a00baff370090
:100c80006022b800060220000000d0008180d2005f
:100c90000482d2008582d2000000a000020252002d
:100ca00083825a00030031000202420083824a001c
:100cb0000000a1000603e900f3ff3a00000006006f
:100cc000efff07000400be0000000600889fbe0082
:100cd0008a9fbe0030044200b0844a0030054b00b9
:100ce00090854b006000b1000898be000a90be00dd
:100cf0000440e10005c8e10006d0e10007d8e100aa
:100d000002003100680040001008e8004f05be00f6
:100d10004f04be0000000600889fbe008a9fbe00f0
:100d20003004be002005be000418540005985c0085
:100d300006185d0007985d00110020000440e100e6
:100d400005c8e10006d0e10007d8e1000100390044
:100d50008000eb00108810004f05be004f04be005d
:100d6000000006001200fa00889fbe008a9fbe00a5
:100d70008c9fbe00e0b79f00f1b79f0082bf9f002d
:100d800093bf9f000605be000404be000000eb00f8
:100d9000d0b79f00c0b79f00b0b79f00a0b79f001b
:100da00090b79f000006eb005fb19700cfb09700af
:100db000820141003fb097000200e00004003d00c6
:100dc000370007007e805700c0ff07000300370090
:100dd000330007007e805700cfff0700dfb6970083
:100de0000d00e0000c0035006fb29700ffb29700d5
:100df0000fbb97009fbb9700100020000100200050
:100e00006011b80000027200818272000203730058
:100e1000838373001b0007000c06e8000104200018
:100e2000810f5600e0ff3a000d00e00004003d0095
:100e30000802be000a03be007e805700a3ff070021
:100e40005fa897000000e00005003a001fb297007d
:100e5000afb297003fb39700cfb3970009000700e8
:100e60006fb09700ffb097000fb997009fb9970038
:100e70004f06be004f05be004f04be000080fa00c2
:100e8000000006000100070000000600a4b79f0054
:100e9000b5b79f00c6b79f00d7b79f0000000600f8
:100ea0004f09de0082817100b3b79f004f01de0061
:100eb0008180400082807000a1b79f008fb09700b2
:100ec0004f09de00000040000200700090b79f0054
:100ed0007fa897004f01de00818040008280700073
:100ee00081b79f000d0007004f3ade000000400070
:100ef00004007000f0af9f000800070004024200e9
:100f000085824a0006034b0087834b00dfff070002
:100f10000802be000a03be00000006002fb29700c0
:100f2000bfb297004fb39700dfb3970000000600f1
:100f3000881f780018002000881f780089ff0700ac
:100f40008f87e9004f04780000000600801feb0047
:100f500084ff07008f87e90000000600889fbe001d
:100f60008a9fbe00e00f5000e08f5800e00f59004c
:100f7000e08f59000c003d006044b8006055b80097
:100f80000000540081805c0002015d0083815d00ef
:100f9000180020001500070008003d001800070099
:100fa0000004eb00050037000004eb000f00070011
:100fb00002003d001200070018002000dcff0700bf
:100fc0000800e000060032006022b8006033b8007c
:100fd0000000520081805a0002015b0083815b00a7
:100fe0004f05be004f04be0000000600e00f520097
:100ff000e08f5a00e00f5b00e08f5b00000006000e
:101000006044b8006055b8000402540085825c005a
:1010100006035d0087835d0000000600889fbe0018
:101020008a9fbe008c1f7800e00f5000e08f5800b0
:10103000e00f5900e08f59000d003d006044b800fa
:101040006055b8000000540081805c0002015d0022
:1010500083815d001c0020000820e10009a8e10058
:101060000ab0e1000bb8e1000d003d0008003700b8
:101070000006eb00e00f5200e08f5a00e00f5b002b
:10108000e08f5b0006003d006044b8006055b8008a
:101090000402540085825c0006035d0087835d00c6
:1010a000aaff07000c00e000060032006022b80032
:1010b0006033b8000000520081805a0002015b00da
:1010c00083815b004f0678004f05be004f04be00d1
:1010d00000000600889fbe008a9fbe008c1f78001b
:1010e0000006eb00e00f5000e08f5800e00f5900c1
:1010f000e08f590007003d006044b8006055b8001b
:101100000000540081805c0002015d0083815d006d
:101110001c002000e00f5200e08f5a00e00f5b003f
:10112000e08f5b0007003d006044b8006055b800e8
:101130000402540085825c0006035d0087835d0025
:101140000c00a2003b0007000c00e000060032008b
:101150006022b8006033b8000000520081805a005d
:1011600002015b0083815b004f0678004f05be00e3
:101170004f04be0000000600889fbe008a9fbe008c
:1011800000827000040271000482710026003200a7
:101190000004be000200be006011b8006b09200010
:1011a000950220000182cf000a0039000541b100fc
:1011b0000082cf00070039000541b1000982cf004d
:1011c000040039000541b1000882cf000100390058
:1011d0000541b10005425200120032000a003b00f6
:1011e00082817100610164008100d1000080d30020
:1011f0008984d3000884d3008b05e8000442e8000a
:10120000f7ff3a00070037000804440089844c00c7
:1012100000004800818048008b05e9000442e90095
:10122000f9ff3a0000fe07004f05be004f04be0064
:1012300000000600889fbe008a9fbe008c9fbe00f3
:101240000404b8000506b8008904460060854e0015
:101250000606b8000a054600e0854e000706b800fd
:101260008b054600040eb800890446000a854e002e
:10127000e0854d00050eb8000a0546008b854e003e
:10128000060eb8008b0546000416b8000a05460095
:101290008b854e000516b8008b054600041eb8006d
:1012a0008b0546000800be000a01be004f06be00c6
:1012b0004f05be004f04be0000000600800178000c
:1012c00002003700815978000201e9000200e000c5
:1012d000fcff3a0000000600889fbe0080047800f2
:1012e000010478000800e0000900320041f7200006
:1012f000a0062100ea02070041f72000080078005c
:10130000e702070041f7200070072100e402070010
:1013100041f7200009007800e102070041f72000b2
:10132000c0072100de0207000000eb002f020700cb
:10133000100020006702070010002000c60207000e
:10134000881f78000204780008017800260307004f
:10135000080040004f04780000000600881f780055
:10136000000478008201780001017800880078008c
:10137000009a2000060007000000e000020035008f
:101380008040eb00017478004f04780000000600f4
:101390006200fa00889fbe008a1f7800000578006e
:1013a00081047800020478008300780080f92f001f
:1013b0000f004000a60207009a979f00a9979f0080
:1013c0000000eb00b09f9f001885fb008a04fb0023
:1013d0000a05ea004f55de0050022000808f5400bd
:1013e0000d003200e10f55000b003a000a017800b1
:1013f000880078002f9097009f91970003000100cc
:10140000a0979f000000e0008e0032003f989700f8
:101410000000e800b09f9f000a0444005002200032
:10142000808f5400040032000900e000e6ff3a001b
:101430003f989700840037000000eb00909f9f00ca
:10144000809f9f00f0979f00e0979f00d0979f009c
:10145000c0979f0007003700810c21000100500059
:1014600000004000c10b210061007800df98970068
:1014700001007000d09f9f00880478000904780064
:10148000384578008a00fb00800c210061020700cb
:101490000000e000f0ff3a00a1c2b300814f550008
:1014a0000e003a00cf8897000180e900c08f9f00ae
:1014b00010007800c09f9f000000e00005003d0084
:1014c0000000ea00c09f9f005f9897000020a000e6
:1014d000d09f9f000904e8000f003700c09f9f00c5
:1014e0000000eb0005003700f2ff2700820f5000dc
:1014f000020032006a01b90002804000090478004d
:1015000088047800b900fb000103b100e98f5000a6
:10151000f5ff3600c09f9f00e0c2b300984f100057
:10152000020032000080eb0019003700a0c2b300b7
:10153000d84f100007003a00cf8897000180e900db
:10154000c08f9f0010007800a09f9f000804e80053
:10155000100037000000eb00a09f9f00880078007b
:1015600005003700f3ff2700830f50000200320010
:101570006a02b90004004100010478008800780084
:101580003101fb000203b100e90f5100f5ff360005
:10159000a09f9f00984478008900fb00400b210029
:1015a0001c0207000000e000020032000804e8000e
:1015b000010037008044eb00c97f9f0080c6b30064
:1015c00080cf540004003a0098cf14000a003a007b
:1015d0006640500006003700c0c6b30080cf5400fc
:1015e00005003a0098cf140003003a00654040001f
:1015f000c07f9f000804e800e3fb2f008f814100bb
:101600001841780081f92f008f804000a0f92f0049
:101610000f004000100007000000e00009003a0041
:10162000e1fb2f008f804000a0f92f000f00400049
:101630001d0607000000e000020035000804e80075
:1016400061ff37000080eb004f0578004f04be00bb
:101650000080fa0000000600889fbe008a1f780004
:1016600000047800824478000305780070c6b30057
:1016700080cf540021003c0000c0e90080cf54001e
:10168000cd003d007240500080cf54003401320044
:101690000d003c006c40500080cf540047013c00de
:1016a00000c0e90080cf5400c3003d0050c2b30029
:1016b00080cf54003e0132007c40400080cf540077
:1016c0003e013a00bc00370010c6b30080cf540082
:1016d000b900320004003c006940500080cf540043
:1016e00036013a006600370030c6b30080cf5400a0
:1016f000180032000040e8000900370000c7b300be
:1017000080cf54000801320008003c0000c0e9000e
:1017100080cf5400d100320059003c006540500099
:1017200080cf540025013a000f00370050c7b300a6
:1017300080cf5400520032006340400080cf5400fc
:101740004f0032006540500080cf54001b013a002a
:10175000030137001181e9008208780078009000c9
:10176000127578001b01370028609000c2c6b300d4
:10177000824f500007003a001101780064005100c8
:10178000800878001000be004f89de0082017800da
:101790001100370012c7b300824f5000030032001f
:1017a000a2c6b300824f500006003a001101780033
:1017b00068005100800878005001be004000be0063
:1017c000050037001180e9008008780010007800db
:1017d000cf80de006109b900009cbe000294be000b
:1017e0002862900085c6b300854f52000d0032007c
:1017f00025c6b300854f520004003a000000fb00ec
:10180000cf80de006109b9000800370045c7b3008a
:10181000854f520003003200e6c24200854f52005d
:1018200004003a00cf80de006109b900009cbe00d0
:101830000294be003802be002803be00780090006b
:10184000d1c2b300e00f5200e08f5a00e00f5b00fe
:10185000e08f5b0008003500881090000118a3009d
:1018600002003200b1c2b300030037000108a30038
:101870004c00320001c2b300017578004700370008
:1018800028609000c2c6b300824f500006003a00a4
:101890001101780064005100800878001000be003b
:1018a0006011b8001100370012c7b300824f50001a
:1018b00003003200a2c6b300824f500006003a0077
:1018c0001101780068005100800878005001be00c6
:1018d0004000be00050037001180e9008008780054
:1018e000100078008000eb006011b800009cbe0082
:1018f0000294be002862900085c6b300854f520056
:101900000d00320025c6b300854f520004003a0096
:101910000080fb008000eb006011b8000800370079
:1019200045c7b300854f520003003200e6c24200b3
:10193000854f520004003a008000eb006011b800af
:10194000009cbe000294be00081090000038a30066
:10195000140032003800be002801be00e00f500025
:10196000e08f5800e00f5900e08f59000d00320061
:1019700080c7b30080cf54000300320080c5b3009d
:1019800080cf540007003a007800900001c3b300f4
:10199000017578000000e800097578000000e80093
:1019a0007004980078009000000545006a049800d3
:1019b000894078006700370028619000c0c4b300f8
:1019c000804f510006003a00110178006800510074
:1019d000800878005001be004000be0005003700be
:1019e0001101780064005100800878001000be00ea
:1019f000b9090700009cbe000294be00b800900028
:101a0000780090000100e00002003d00d1c2b30068
:101a100008003700881090000118a300020032006f
:101a2000b1c2b300030037000108a3000400320074
:101a300001c2b300017578000000e800700498004e
:101a400078009000000545006a04980089407800fd
:101a500008007800c201070060003700286190008c
:101a6000c3c6b3001180e900834f51002200320049
:101a70000a003c00e4c15100834f510025003200b0
:101a800083c1e800834f510013003200e8c15100c8
:101a9000834f51001e003a000a00370043c7b300cd
:101aa000834f51001b003200e6c14100834f5100bb
:101ab00018003200e9c15100834f510014003a0070
:101ac000050037008008780010007800485c90001e
:101ad000084878004100370080087800100078003e
:101ae000680a9000cfa2de00612bb9000498be0006
:101af0000690be003900370080087800100078009a
:101b000068099000cf91de000288be0033003700e4
:101b10001180e9008008780010007800680c9000bf
:101b2000080878002d0037001180e900800878004f
:101b300010007800cf80de006109b900009cbe0073
:101b40000294be0078009000000545006a049800e9
:101b500081c7b30008007800a40307001f00370006
:101b60001180e90080087800100578006a04980068
:101b7000d80c90000900e00004003d000a00780045
:101b80002001070080047800070037000901780071
:101b90008000eb000a007800090107000000e00067
:101ba000010032008a045000190c98000b00370025
:101bb00078009000097578000600370078009000e2
:101bc000000545000904e00001003a0059c2b300d5
:101bd000094d78000000e800700498000000eb0058
:101be0004f0578004f04be0000000600889fbe002d
:101bf000000478000800e0000e003a008004eb00ca
:101c00008800d000c0f92000610078000000e000ea
:101c100004003200f5ff07000000e00001003d0075
:101c20008084eb000804e800e80f5400f4ff3a0059
:101c30002500370000002200180060008004eb003f
:101c400021003200a80490000f0037000901510064
:101c5000384090000000fb00890078004efa070031
:101c60000000e00007003c002800900040049800bd
:101c700060049800500c98001890a0008084eb003d
:101c8000110037008084440048019000828f540086
:101c9000eeff39002800900040049800980078007a
:101ca00002c020000281600001003a00380090006c
:101cb00001e8a30002003200600498000100370030
:101cc000500c98008004eb00090078004f04be001f
:101cd000000006000800fa00889fbe00800478001b
:101ce00011002000090078003e0007000004780081
:101cf000e10f440035003200e10f5400350032009e
:101d00000800e000060032008000eb0009007800c7
:101d10003400070009007800080001002d0037009a
:101d20006000b8006011b800a0bf9f00b1bf9f0065
:101d3000c2bf9f00d3bf9f006148b900610050003f
:101d4000e0805800e50f5000e08f58001a003e0078
:101d500000600100050037000d0037000900370062
:101d6000050037000d0037000f0037001024240055
:101d7000214525000e003700600425005104220093
:101d80000b00370090c42400c10422000800370073
:101d900090e424004105220005003700305524005e
:101da00071642500020037004055240021d524002d
:101db000a0bf9f00b1bf9f0041f720006c8057007b
:101dc00037000700100020002300070008007800fb
:101dd000010037000000eb004f04be000080fa0055
:101de000000006000001e9000080eb00e50f510053
:101df00007003e00808f5000050032000201d00035
:101e0000630e2100030141001200780001097800ef
:101e1000000006000001eb00030037000201e800ab
:101e20000404e000070032006103b8006112b8004a
:101e30008601420066427a00814f5200f7ff3a0065
:101e4000010037008001eb0003007800000006006d
:101e50000108780000000600000478000600370042
:101e60000180400092878000620078008100e800d5
:101e7000a187880000000100a1878000b087800052
:101e8000808f5000f6ff39006002210090878800a3
:101e900020022000b087880008007800adf9070014
:101ea000889fbe008a9fbe008004780001047800ed
:101eb0002c003700c800900068009000808f500010
:101ec00004003900080078005e0007000000e00010
:101ed0003700350000402000180060000900320083
:101ee000a1002000090078004c0007008005780060
:101ef0000b00e00003003200618514000a854500f4
:101f000004003700090078003e0007000005780053
:101f10008005eb0048009000e800900080805000b1
:101f20008a8f500002003100010578008005eb0027
:101f30000a017800890078002b0007004800900013
:101f40000a004000400498000b00e000040032004a
:101f50000800780025ff07000000e00014003a00a8
:101f60008a8444001904e000d2ff3a000080200077
:101f70001800600006003200080078001bff070010
:101f8000800078000080eb000100e00009003a00ca
:101f900001c02000988060000000eb0005003200c6
:101fa00048009000600498000000eb00010037003a
:101fb0000080eb004f05be004f04be00000006008d
:101fc00003003700b0cf1000050032000201e90025
:101fd000800178000200e000faff3a0000000500ee
:101fe000030078000000060080017800020037003e
:101ff000b15978000201e9000200e000fcff3a005c
:102000000000060080007800010178003104e00043
:10201000fdff3a0000005100000006000001eb0047
:1020200000027800b041780081cf510001003a00f1
:10203000040178000304e000f9ff3a000200780090
:1020400000000600889fbe008a1f78000004780008
:10205000c8009000680190000000eb00828f5000e3
:102060003c003900180078002200290002016000bd
:10207000e20f510007003200012024000000e000c0
:1020800001003d0001202000008c70000080eb006a
:10209000300037000200260002006000820f50006e
:1020a00009003a0038009000808f50000600390087
:1020b00008007800cdfe0700800078000080eb006b
:1020c0000100e00023003a001805780000c020005d
:1020d0000000650018003a00a8049000600220008b
:1020e00008004000808f540013003a0000202000b8
:1020f000d9050700200498000000e00005003a0020
:1021000029049800490498008904e80039049800db
:10211000080037000a60a0000a0c7800400498000c
:10212000012020008080400031049800400c98007d
:10213000500c98001a0407002800900050049800e2
:10214000380090006004980000002600180c700011
:102150000000eb004f0578004f04be0000000600b1
:10216000cf04b000889fbe008a9fbe008c9fbe0037
:102170008e1f780000067800814678003c00be0083
:102180002c01be00d0979f00e1979f00f2979f001f
:10219000839f9f0010c6b30080cf5600120032000c
:1021a00010c4b30080cf56000f0032005c089000ce
:1021b0000000e00002003d00600020000900370040
:1021c0000000e00008003a0070c6b30080cf56005f
:1021d0000300320070c4b30080cf560002003a0002
:1021e00010002000500e98008c00780080fa2f001c
:1021f0000f004000d3010700e20f50000f003a002b
:1022000030002000100e9800c0fa200011c6b30064
:1022100081cf560019003200e4c0400081cf560043
:102220001600320000fb20008140e80081cf5600fc
:1022300012003a00c0fa2000100037000000e00051
:102240001400340030002000100e980040fb2000e5
:1022500011c6b30081cf560008003200e4c0400030
:1022600081cf56000500320080fb20008140e8004d
:1022700081cf560001003a0040fb2000ec009000a6
:10228000b0487800b068780010407800904098001e
:10229000a601370011c6b30081cf560003003200fb
:1022a00011c4b30081cf56000e003a00ec0090003c
:1022b00002c3b300825878006106980082c5b3005b
:1022c00013c6b30083cf560001003a0082c7b300a3
:1022d0008258780061069800fc0090008180e80038
:1022e000710698000000e00005003a00c0979f00ca
:1022f0008001eb0022fb2f000f0141008701370016
:1023000010c6b30080cf56000600320010c4b300e0
:1023100080cf56009a003a00d1fc2000d1b79f0030
:1023200002003700c2fb2000d2b79f005c0890007b
:102330001b0220000000e000010035008005e800dd
:102340000b05e8006022b8006033b8005f9097008a
:10235000ef9097007f9197008f999700b50607003f
:10236000000278003c00be002c01be000400e0002a
:1023700001003d0003f0a200d0979f00e1979f006d
:10238000f2979f00839f9f00cf919700e4815100b7
:10239000c3979f000040eb00a0779f003efb2f00fb
:1023a0000f07470031003700c20120000300200062
:1023b000a0fa2f000f004000470407005f9097002d
:1023c000ef9097007f9197008f99970090b79f00ab
:1023d000a1b79f00b2b79f00c3b79f005d0707007a
:1023e0000004be00670555004240a9000c003400ff
:1023f000840707000002be000203be001fb0970062
:10240000afb097003fb19700cfb19700f507070035
:10241000d0979f00e1979f00f2979f00839f9f00b6
:102420006707470070002000050037006f676400f1
:10243000cc48dd004444de0008847000c4ccde00db
:10244000e00f5400e08f5c00050034000000e9005c
:10245000e10f4000f5ff3a00010037000067eb0094
:102460000000e900fdff3b00670747000a00e000ad
:10247000090034006022b8006033b8005f90970014
:10248000ef9097007f9197008f9997006e06070055
:102490000000e000c4ff3c0032fb2f000f014100b0
:1024a000020757008e0178008b0f5700010034009f
:1024b0008b0178000300e0002b0035000040eb00aa
:1024c0008e8f51000a003d0082fa2f000f0141005b
:1024d00003004100b0489000f0c0b300e7cf5000c7
:1024e00003003c000040eb00010037008101780050
:1024f0008300e90034fb2f000f024200010142007b
:1025000012427800804f5200f8ff3200ef4f500027
:1025100001003a000449e8000100e00007003d0026
:102520008301e8004f90970064004000c0979f002f
:1025300022fb2f000f0141000200370032fb2f0069
:102540000f0141000300780005003700e2407800e9
:102550008100fb005fb29700e4c078000171780051
:102560000000e900f9ff3b005c0890000000e0007b
:10257000ea003d000300e900500e9800e700370034
:102580005f949700ef9497007f9597008f9d970039
:102590006022b8006033b8000800be000a01be0027
:1025a000240607000000e00005003d000bf0a2003b
:1025b000d8979f00e9979f00fa979f008b9f9f00f5
:1025c00070592700cf9097000088b900026a280050
:1025d00013002000e8f8070064045000c8979f002b
:1025e00015003b0063041400c0ff2f0000046400ca
:1025f0000800ea00c0979f005f909700ef90970057
:102600007f9197008f999700eafd2000070037001f
:102610000808a300030032003a02be002a03be00ed
:10262000fb0607000884d100680545000800e000ab
:10263000f7ff3c001a0037000800e0001c003200e1
:10264000c0ff2f0000046400c8979f00eafd20002f
:102650006000b8000200200003ff230007003700dd
:102660000808a300030032003a02be002a03be009d
:10267000e70607000884d100680545000800e0006f
:10268000f7ff3c000002be000203be005f9097000f
:10269000ef9097007f9197008f999700ef050700c3
:1026a000d0979f00e1979f00f2979f00839f9f0024
:1026b0005c0f900060c6b30080cf5600040032006b
:1026c0006000200061c4b30081cf560002003a00d0
:1026d000cf9097006a8040000e074000f30f57002c
:1026e000010034003e01200000c3b300a0779f002a
:1026f0003bfb2f008f854500350037005fb097000a
:10270000efb097007fb197008fb99700910607004f
:102710000004be00680757004240a90010003400c2
:10272000b80607000002be000203be005fb09700bb
:10273000efb097007fb197008fb997002907070086
:102740006022b80046782d0077192400b0060700f3
:10275000d0979f00e1979f00f2979f00839f9f0073
:10276000e88545008a0020000801be000c00370003
:10277000a400200005002000a0fd2f000f00400055
:10278000e80207005fa89700efa897007fa99700cd
:102790008fb1970004c3b300846541000001be00ff
:1027a000e00f5100e08f5900060034000a05e900ef
:1027b000e10f4500eeff3a000200370000c3b3000e
:1027c000806578000a05e900fcff3b00e8854500cc
:1027d0000e00e0000d0034005f909700ef9097002e
:1027e0007f9197008f999700d0b79f00e1b79f0026
:1027f000f2b79f0083bf9f006022b8006033b8002b
:10280000910507000000e000bcff3c0031fb2f00f9
:102810008f804000818555004f91970067004100ef
:10282000c0979f00020037008b05e9000000e90017
:10283000010178008200780003c3b300b1cf11001a
:10284000f9ff3200c0979f00dc09900061c6b30019
:1028500081cf56000300320061c4b30081cf56001f
:1028600002003a000000e8000900370010002000d4
:1028700051c6b30081cf5600050032000d407800ec
:1028800050c4b2000080fb000000e9004f00de00f1
:10289000830140008b8f5100010034008b017800d0
:1028a0000300e0001d00350000c3b3008b8f510012
:1028b00006003d0062c279006940400041c3b30098
:1028c000814f520001003c00694050008300e90044
:1028d0008100410001003700840178000302e90013
:1028e00001037800a142780080cf5200faff320045
:1028f00091c3b300814f500001003a00054be8003e
:102900000400e00005003d000201e9008301e80049
:102910004f9297000402e800c4979f004f929700df
:102920008d4078000c007800f50307004f07780011
:102930004f06be004f05be004f04be00cf04b100dd
:1029400000000600889fbe0000047800e684400076
:102950001900d0004500de00f27f2000820f5000f9
:1029600010003a00000ceb00990478006f816400bd
:10297000200020001b003a00210190000200e0002e
:1029800018003a00110190000200e00015003a0022
:10299000100020001100e000120032002000200092
:1029a000100037000000e00004003a000100780049
:1029b0007d0207000000e00008003c00f200280053
:1029c0001901610001fe2300810c710021c02f005c
:1029d000010c40000080eb0002003700000ceb000f
:1029e0000000eb004f04be0000000600fc8747001b
:1029f000889fbe008a9fbe008c9fbe008e1f7800fd
:102a00000006780080c5b30080cf50000a00320075
:102a10007740400080cf50000a00320069404000fb
:102a200080cf50000b003200300a210080bf9f0091
:102a3000ae0020000a0037002209210082bf9f005b
:102a400006003700330a210083bf9f008e0020005c
:102a500003003700340a210084bf9f000e012000cc
:102a60003c02be002c03be000605be000404be00ee
:102a700040c6b30080cf50000300320065404000e4
:102a800080cf50000b003a00e00f5200e08f5a0058
:102a9000e00f5b00e08f5b0006003d006000b800c7
:102aa0006011b800040450008584580006055900e0
:102ab00087855900e80f57000400320040002000cd
:102ac000f00f570038003a000100370030002000b6
:102ad000e00f5400e08f5c00e00f5d00e08f5d00d0
:102ae00004003a00dc0890008d0120000100e000a5
:102af000060032008e00e900888060008fba9700df
:102b0000e5c07800f1ef9f007d0120008000780093
:102b10008100e900050033008b05d1000a85d30050
:102b20008984d3000884d300f9ff3700089ebe00d3
:102b30000a96be00120037008d06e9008e00e900fb
:102b4000848060000fb99700e2c1780082fd2f00f9
:102b50000f01410003f17e00800078008100e90050
:102b6000050033008783d1000683d3008582d3001c
:102b70000482d300f9ff3700049ebe000696be0013
:102b80003c02be002c03be00e00f5200e08f5a0052
:102b9000e00f5b00e08f5b008b0034000d00e00075
:102ba000e5ff3c00880037002c60900081c6b30030
:102bb000814f50000b00320006003c000004e00092
:102bc00008003200e6c05000814f50004e003a002d
:102bd00004003700c1c6b300814f50004a003a00dc
:102be000210037000800e00004003a005c08900073
:102bf0008d0120000000e0000600320011000900f5
:102c00000e84d8000fb99700e2c07800f1ef9f0062
:102c10007d012000110009000e84d8000a00370051
:102c2000110009000e04d8008d06e9000e81b900dc
:102c3000020454008fb8970061417c0081fd2f0091
:102c40008f80400082f07e00000478000800e000e1
:102c5000020032000d00e000f1ff3c00cfc4de00b6
:102c6000614db90025003700e00f5400e08f5c0093
:102c700004003a005c0890008d0120000000e00094
:102c8000070032006171b9000800be000cf80700af
:102c90008fb99700e3417800f3ef9f007d0120009a
:102ca0006171b9000800be00f5f707000b0037009e
:102cb0006171b9000800be002ff707008d06e9001a
:102cc00000f1b900020454000fba9700e4427c00fe
:102cd00084fd2f000f02420005f27e000004be00ba
:102ce000e00f5000e08f5800020032000d00e000bd
:102cf000efff3c004fcdde008a057800089ebe0045
:102d00000a96be0030003700e00f5400e08f5c00f0
:102d1000e00f5d00e08f5d0004003a005c08900069
:102d20008d0120000000e000090032006172b9004e
:102d3000612bb9000800be000a01be0083f807003d
:102d40000fba970064427800f4ef9f007d012000e5
:102d50006172b900612bb9000800be000a01be0013
:102d600073f807000d0037006172b900612bb900dc
:102d70000800be000a01be0078f807008d06e900d1
:102d800000f2b900040454008fba970065427c0039
:102d900085fd2f008f82420084f27e00009ebe00df
:102da0000296be003c04be002c05be00e00f54009d
:102db000e08f5c00e00f5d00e08f5d0002003400fa
:102dc0000d00e000e8ff3c00e80f570010003a005b
:102dd0000c1090000038a3000d003200f78f560051
:102de00006003e0085fd2f008f824200e5c07e0078
:102df00000c3b30080cf5000050032008d06e9000b
:102e000002c3b30081fd2f008f80400082f07e005e
:102e100078811600120e98006c00900083fd2f0040
:102e20008f8141008d8041006ffc07001c089000dd
:102e3000dc089000810f500006003d00008050002b
:102e4000000e98000c1090000040a10000169800a1
:102e50000f0037000100e0000d003d008c109000d5
:102e6000f4806000f08f500009003a007c09900067
:102e7000fc009000810051000c09900082805000fd
:102e8000008050004240a90001003400000e98006c
:102e90004f0778004f06be004f05be004f04be002e
:102ea000cf01b100000006000400fa00889fbe00b8
:102eb0008a9fbe008c1f780000047800010678000d
:102ec000f80d90007800900080855500080890006b
:102ed00080855500180890008085550028089000ce
:102ee000808555003808900080855500480890007e
:102ef000808555000002220090bf9f000003230040
:102f0000a0bf9f00081090000028a30015003a0001
:102f10000b00e000130034000b0578008a047800f1
:102f2000e20f55000100360029002000c801900082
:102f300009017800ee80570058009000030001005e
:102f4000500498000000e0008c00320068089000f7
:102f500009004000600c9800090555004240a90096
:102f6000eeff3c00780190000200e0000c0034000d
:102f7000c80190008c007800580090000300010008
:102f8000500498008080eb000000e0007c003200dc
:102f9000e80890007800900000804000600c9800e5
:102fa000880c90000900e000110034000905780049
:102fb000e28f5400010036002a002000c801900072
:102fc0000a017800ec8057005800900003000100cf
:102fd000500498000000e00068003200680890008b
:102fe0000a004000600c98008a845400edff37000e
:102ff000180990000200e0000c003400c8019000a5
:10300000e800900058009000030001005004980070
:103010008080eb000000e00059003200e8089000da
:103020001808900000804000600c9800a80c9000e8
:103030000900e0001100340009057800e28f540017
:10304000010036002a002000c80190000a01780023
:10305000ec805700580090000300010050049800d5
:103060000000e00045003200680890000a004000bf
:10307000600c98008a845400edff370038099000f6
:103080000200e0000e003400e800900018089000f4
:1030900080804000c80190005800900003000100ab
:1030a000500498008080eb000000e0003400320003
:1030b000e80890003808900000804000600c9800fc
:1030c000c80c90000900e0001100340009057800e8
:1030d000e28f5400010036002a002000c801900051
:1030e0000a017800ec8057005800900003000100ae
:1030f000500498000000e0002000320068089000b2
:103100000a004000600c98008a845400edff3700ec
:10311000081090008000eb000028a3001800320087
:103120000b00e000160034008b04780009057800dd
:10313000e28f5400010036002a002000c8019000f0
:103140000a017800ee80570058009000030001004b
:10315000500498000000e000080032006808900069
:103160000a004000600c98008a8454004240a90084
:10317000eeff3c008000eb00010037008080eb0098
:10318000010078004f0678004f05be004f04be00d6
:103190000080fa000000060020972100760037002a
:1031a000881f7800c80f21001804e00003003a00cf
:1031b000f9ff070020c0b300004c78004f047800ee
:1031c00000000600889fbe00000478000800780018
:1031d00086fa0700800478000004200018006000d0
:1031e0000200320028009000360107000000eb00ca
:1031f00020049800384090000004e00005003500ed
:103200000000fb00dbf407000000e00001003200da
:103210008084eb00181090000000e00008003200ed
:103220000bf507000000e000010032008084eb0095
:1032300018109000230107000000eb001014980004
:103240000008200018006000150032000001eb00ab
:103250006000b800c3f920000202d00063027a00c7
:10326000880f520005003a000000400081804800ad
:10327000008041000008eb000600370061004000bc
:10328000e08048000201e800e80f5000e08f58009d
:10329000f0ff3a00080078000a0107000e0037002e
:1032a000000c780000c0eb00304498006002200061
:1032b0000800400020049800400498005004980042
:1032c000400c980060049800500c9800700498001e
:1032d00076004400000c9800090078004f04be00fe
:1032e00000000600881f78000004eb006140b80071
:1032f000e2ff2f00f3ff2f003c040700a2fa20009a
:10330000620078000000e00001003200adff07001d
:103310000804e800e80f5400f4ff3a004f04780076
:1033200000000600881f78008a9fbe008c9fbe00a8
:10333000000478000205be000406be000401be00c1
:103340000a00be008cf50700008cbe000c01be0018
:10335000260407000005550081855d002a049800b9
:103360003b049800080078004f06be004f05be00e1
:103370004f04780000000600c1f220000100e000c8
:1033800008003200a18780000100e0000500320043
:103390008100e900a18788008100d0009287800029
:1033a00000b1780000000600e6004000110178003e
:1033b00005002800850261006f0161008208780025
:1033c000020032001200200011003700a00190001e
:1033d000120020000300e0000d003a009001900070
:1033e0000300e0000a003a001000e00008003a0084
:1033f00036003700640340009608780080017800aa
:10340000530b78009009780004087800700151008f
:10341000110278000400e000f6ff320013003700cc
:1034200064024000140378004f33de0083814100c2
:103430008308730080017800d3037800cf3bde005f
:103440001403780006034300068a73001302780011
:1034500004024200100378004f33de008609720038
:1034600090017800038841000201e9009101780091
:10347000ef8f5100eaff360010003700800178001e
:10348000530378004f33dd001002d10004087300ad
:103490006402400094037800cf3bdd001303d100a9
:1034a00086897300110378004f33dd009401d10049
:1034b000030a73009108d1000201e800910178002d
:1034c000ff8f5100edff3e00ef8861009188720090
:1034d00002007800000006000400fa00889fbe0089
:1034e00000047800e6044400190078008000d00051
:1034f000c508de00f47f2000848f50000e003a00e3
:10350000ef006000200020006b003a00a80090004f
:103510000100e00068003a00980090000100e0001f
:1035200065003a00100020001800e0006200320040
:1035300020002000600037000100e0000a003a008f
:1035400008007800c2bf9f00d3bf9f0096ff07000e
:10355000800078000000eb004fb99700dfb99700ba
:103560000100e00054003c004f88de000281400072
:1035700083014800e07f2000800f5100e08f590058
:103580000d0034001900e00004003d006000b800a8
:103590000200200003ff2f00030037006000b80086
:1035a0000200200003ff2700009cbe000294be0022
:1035b0001000200040003700e00f5100e08f59005c
:1035c000050034004411dd00f000280019006000ff
:1035d000800c7100370037001900780004002800c3
:1035e000040260006f0060000040a000800c7800c2
:1035f000d0fc2f00f1ff2f00800f5100818f590068
:1036000006003d00840c78000000eb0020049800c8
:1036100010049800000ceb00270037006f014100f8
:103620000600370008007800500c7800e4004400e1
:103630001108780099087800800ceb0070005100a8
:103640007001410001fe2f0082804000ef8f40009a
:10365000f4ff35000000ea00150032008800780011
:1036600070011000d1027800822add0098017800f4
:103670008019de00038c7200640444009802780014
:10368000822add00910178008019de0083887200b3
:10369000990078000209dd00980078008008de00bb
:1036a000010c7100990078000008de00800c7800a1
:1036b000990c72000080eb004f04be000080fa00fd
:1036c000000006000000e0002f003200c00178007a
:1036d000e38f51002c0036000308a3002a003a00b3
:1036e000d18780000100e00002003200810f50000d
:1036f0000400310011009800d087880016003700c0
:1037000082007800110190000200e0000200320007
:10371000800f5100faff39001102780084824000c6
:10372000850f500018003900808f520003003a00c6
:103730008308420001007800070037000200e00023
:103740000300320083014000830f51000e00390056
:103750001200980090009800900090000100e00096
:103760000900320010014000828f500006003a002c
:10377000820f21000009eb001001780011084100c0
:10378000910090001100980000000600889fbe0084
:1037900000047800c18780000100e00002003200d0
:1037a000010078000d003700d1878000a00f2100b4
:1037b00004003700910f5400250036000180e80016
:1037c000910090000100e000faff3a00100037007d
:1037d000920f54001e0036000280e80010017800ad
:1037e0000200e000faff3a0011017800d187800062
:1037f000a00f210004003700910f54001400360080
:103800000180e80091009000828f5000faff3a009a
:10381000f9878000888f5400010031008804780007
:1038200009007800680107000000e00004003a0089
:10383000888f5400050032008904d100f5ff37005d
:10384000091878009fff0700d2ff37000000eb0047
:103850004f04be0000000600881f7800630440008b
:103860000800a1008000eb00800f5400210036000a
:10387000e30f540001003e004800200008007800db
:10388000c2ff07008000eb000000e00019003200da
:10389000900078009101780064815100880f5100f8
:1038a0000300310011019000020878000700370082
:1038b00008814000020878009101900013019800ef
:1038c00010017800110914008808780010017800b0
:1038d0000000eb000200e0000400320092019000c2
:1038e0000300e000010032000280e800c087880089
:1038f0008180e800010078004f0478000000060095
:10390000f0874700889fbe008a9fbe008c9fbe0044
:103910008e1f780000047800814478000205be0004
:10392000040678000b00e00002003c001b002000b1
:103930000a10210060c6b30080cf54000e00320090
:1039400060c4b30080cf54000b00320070c6b300d7
:1039500080cf54000300320070c4b30080cf540005
:1039600099003a00e40f46007f00350058089000a7
:10397000800f56007c003d000c06e80060c6b300d6
:1039800080cf54001000320060c4b30080cf5400d8
:103990000d003200081090000038a30004003a0027
:1039a00058089000808f550001003d005b0c980086
:1039b000580890000c005000500c980002003b008a
:1039c0000000eb00500c980018089000e8009000f0
:1039d0000c00e00026003c0002c3b30082707800b7
:1039e0000000e800100c9800d80890000100e000ea
:1039f00003003c00881090000138a300050032004d
:103a0000e8009000e2c2b300827078000000e80095
:103a1000100c9800580890008c00ea00810f5000ac
:103a200001003d000006ea008c00ea00210c98002d
:103a3000000646005c0c98008b0f56000100340015
:103a40000b0678003c0c9800e800900018089000e5
:103a5000008040000c0178008a00780062f90700bd
:103a6000580890000c0650004c0c9800be0037001f
:103a70008c8f550018003d00008040000b0178003d
:103a80008a00780058f90700180890000080450067
:103a9000100c98008b0556002b0c9800d80890004d
:103aa0000100e00003003c00881090000138a300f2
:103ab00006003200e8009000e2c2b3008270780095
:103ac000380890000000e800300c9800580890007a
:103ad000400c9800a4003700008040000c017800e2
:103ae0008a00780040f9070018089000000046009e
:103af000100c98008c855500d80890000100e0005b
:103b000003003c00881090000138a300050032003b
:103b1000e8009000e2c2b300827078000000e80084
:103b2000100c980058089000808f55000100340058
:103b300080057800e80090001808900000804000a0
:103b40008c0045000b01780027f907001808900049
:103b50000b004000100c9800580890008b05500096
:103b60002b0c98008000370070c6b30080cf540043
:103b70000300320070c4b30080cf540012003a003a
:103b800058089000808f550004003d0008109000f8
:103b90000038a30001003a005b0c98005808900020
:103ba0000000e900500c980002003b000000eb0010
:103bb000500c980070c6b30080cf540009003a0042
:103bc00059c6b3000c00370010c6b30080cf5400b4
:103bd0000600320010c4b30080cf540006003a0043
:103be0000400370059c4b3000300370009c7b3000d
:103bf0000100370009c5b30018089000e8009000e4
:103c00009a7078000000e800100c9800d808900026
:103c10000100e00003003c00881090000138a30080
:103c200005003200e8009000e2c2b3008270780024
:103c30000000e800100c9800580890000000e00018
:103c4000100034008b05e900808f5500010034001e
:103c500080057800e800900018089000008040007f
:103c60008a00e8000b017800dff8070018089000d0
:103c70000b004000100c9800580890008b05500075
:103c80002b0c9800e800900018089000008040007d
:103c9000095878000005e8000c00e0000400350039
:103ca000b1c2b300014878008a06780004003700ea
:103cb000d1c2b300014878008a0678000c06ea00f9
:103cc000fd8557000007eb0009003700a200200027
:103cd0008c00780072805700450007007fb0970085
:103ce0008fb89700816d7800000678000e07e80015
:103cf0000c00e000f5ff3c00e10f570013003c0012
:103d000050c6b30080cf54000300320050c4b3004b
:103d100080cf540003003a008a06780000c3b30045
:103d2000805e78000e00e00008003a0000c3b30097
:103d3000805e7800050037000e07e900fc80570020
:103d400061407f0002c3b300825e40000e00e000cd
:103d5000f9ff3c00e8009000180890000080400047
:103d6000808656003d0c980008109000740060009a
:103d7000f00f50000e003a00980890007800900074
:103d800000804000a808900001004000b8089000a2
:103d900001004000c808900001004000f8089000b1
:103da000810f500002003d0000805000000c980080
:103db0004f0778004f06be004f05be004f04be00ff
:103dc0000f01b10000000600800078000000eb0049
:103dd0000100e000050034000100780025f2070032
:103de000e10f400001003a000000eb000000060077
:103df0008002780001037800110009000203d80056
:103e000080017800830a78000299b900020153000a
:103e100092029800050078000000060000c0da0059
:103e20000000060000c0da000000060000c0da0052
:103e3000000006008f1fd100ef0107008f87e90007
:103e40000000e00000000600809feb00ea01070090
:103e50008f87e9000000e000000006002800fa005b
:103e6000889fbe008a9fbe008c9fbe0003866b00a9
:103e7000800007006400e100440032006408e100b3
:103e80004a0032006100e100460032006108e100b2
:103e900049003200ec0647006000b8003d02be0059
:103ea0003d03be00f48657006011b8003d04be001b
:103eb0003d05be007d0320000b0037000000a00080
:103ec0008d06e900130032000402420085824a0098
:103ed00006034b0087834b000000400081804800b0
:103ee00002014900838149000802520089825a0078
:103ef0000a035b008b835b00f0ff3b00080242007b
:103f000089824a000a034b008b834b008d06e9002f
:103f1000edff3a008482720086827200f707b200d9
:103f20008782720001003200150020001e049000fc
:103f30003e0b900006035400e63fb0000368a30068
:103f4000070032000000a7000500a0008301d10097
:103f50000281d3008180d3000080d3000603e800f3
:103f60008301d1000281d3008180d3000080d3007f
:103f70000002eb000482d2001200070003f0a1004f
:103f80000cf0a70003f0a0004e00370064024700c9
:103f90006408e100480032003400be003401be0075
:103fa000f6ff37006108e100430032006011b800fd
:103fb0006000b800f1ff370003ff27000200200077
:103fc000fbff3700180020005700200008045300b2
:103fd0000d003d000600200097fc2f000740e10087
:103fe0001e00340084827200610260008301d100ef
:103ff0000281d3008180d3000080d3000804e80050
:10400000f8ff3a00470020006104600005047400d6
:10401000040464000d00320061004000e0804800ac
:1040200060014900e081490003b8a50007003200a3
:104030000603e8006538e10004003a008301d1007e
:104040000281d3008180d3000080d300f87f20005c
:104050000830e10003003500080378006000b80074
:104060006011b8004433dd00f300b2008301730037
:1040700000000600680447000294be000094be00e1
:10408000fc0447008694be008494be0009007800ba
:10409000a201070008007800a0010700990078003d
:1040a000814f70000b003b000800be007b01070041
:1040b0004f00b10003003700f3ff2700f2ff2f008d
:1040c0006110b9004f06be004f05be004f04be0090
:1040d0000080fa00000006008103780078f20700f3
:1040e0000001be006000b8000478a30013003a008d
:1040f0006220e10015003e000d0039008301d1006f
:104100000281d3008180d3008301d1000281d300da
:104110008180d3008301d1000281d3008180d3004c
:104120000538b000c42add00f300b20083817200bc
:1041300007f0a70003f0a00000000600f3ff27002f
:10414000f2ff2f006110b900fbff370003ff2700cb
:10415000f7ff37001400fa00889fbe008a9fbe0058
:104160008c9fbe000004be000205be006800470030
:104170000a90be000890be00680107000070a7000a
:104180000bf0a100304320009e029000808252007c
:10419000b0fe2f000028e10011003d00b0fc2f0010
:1041a0000028e100150034001e0990008e089000e0
:1041b0007e0090000501b0000201d1008180d30093
:1041c0000080d3008502e800fbff3a000b00e0000e
:1041d000bcff3b0060001000e0801800b9ff370012
:1041e000f0ff2f00f1ff27000b00e000b5ff3b00c0
:1041f0000100280000002000b2ff37006000b80076
:10420000b0ff37004f89de00820178006a01370075
:104210002800fa00889fbe008a9fbe008c9fbe00c7
:1042200003866b0093ff07000028a30064003a0098
:104230000128a30067003a000008a30062003a00ca
:104240000108a30065003a001e009000be0890001f
:1042500081064000ed3fb100f4805700ee01900070
:10426000111ab8008e099000311bb8009e09900009
:10427000311cb800511db800f485570046000700f6
:10428000fe0190003a0007008b85e8003e00070021
:104290008e09900040000700ee01900034000700f6
:1042a0008b85e800380007008e0990004000070069
:1042b0009e0990001b18b800890440000a85480038
:1042c000fe019000340007008b85e80038000700ed
:1042d000ee019000300007008e0990001b18b80016
:1042e000890440000a8548000a98a30008003a00a3
:1042f0000402420085824a0006034b0087834b007c
:1043000008044c0089844c000a054d008d06e90024
:1043100084827200850273004c3add0085027200cf
:104320000100320015002000443ade001400b20003
:104330004538de00cb45dd000b007000c540de00d7
:10434000cb4ddd008b8070004549de00cb55dd0094
:104350000b017100c551de000d03780019ff070045
:1043600003f0a1000cf0a70003f0a00055ff3700f8
:104370001b18b8008502400006834800e0834b000c
:1043800060044c00070037001b18b800060340000b
:1043900087834800faff37001b18b80087034000e6
:1043a00008844800e0844c0060054d0000000600d1
:1043b0001b18b8000804400089844800faff370041
:1043c0000108a3003cff3a005800be005801be009f
:1043d000e3ff37000008a30037ff3a000904780024
:1043e000f9ff370007f0a20006003700020ab90003
:1043f000001bb9000200b8008100420081004300a8
:10440000000006002800fa00889fbe008a9fbe00b8
:104410008c9fbe0007067800878669000c003b0071
:10442000030478008704780008f0a10009f0a100d7
:10443000840f5000858f5800860f5900890f5c004b
:10444000030033000cf0a20001003a000cf0a100c0
:1044500008ff07006400e1005f00320078014700b8
:104460006408e100610032006c0147007485570068
:104470003200be001201be003a04be001a05be00a2
:104480001e039000be0a90008503530006003d0005
:104490000004fd008104fd000205fd008305fd0010
:1044a0008703ea00050378000df8a300040032003a
:1044b00060041400e0841c0060051d00e0851d0000
:1044c0006022b8007d0320000d38e1008006eb007b
:1044d0000b0039004433dd00f300b20083017300a8
:1044e00039003700848272000d027800e106640012
:1044f0008b85d1000a85d3008984d3000884d3003a
:104500008703e900f7ff3b0008004000898048006e
:104510000a0149008b81490004003b006000100043
:10452000e080180060011900e08119000358a30021
:10453000090032008d827200848272006102600084
:104540008301d1000281d3008180d3000080d30099
:104550000603e8001b0037000348a30017003a00d9
:104560000600e000170034000603e9000d00a30078
:104570000000480081804800020149008381490011
:104580000348a3000f003a000600e00009003400d1
:104590000603e90000004000818048000201490054
:1045a0008381490001003a000003eb000348a300a7
:1045b000f5ff32006022b8000200370084827200ea
:1045c000618266007ffe070003f0a1000cf0a700e7
:1045d00003f0a000bbfe3700640147006408e1005f
:1045e00002003a000df8a300b3fe3a003200be000c
:1045f0001201be00b3fe3700889fbe008a9fbe0036
:104600008c9fbe000404be000605be00809fbe0055
:10461000829fbe002f000700040678000800be003d
:104620000a01be002b000700840678004f03be007d
:104630004f02be008d4f76007fb09700130033000d
:10464000f0ff2f008b8f6b0006003b000d0666000d
:104650000c00a7000a00370007f0a6001000200099
:104660000a003700880f5200898f5a008a0f5b00ba
:104670008b8f5b00030039001000200001003e001a
:104680000000200007f0a7000000ea004f06be006f
:104690004f05be004f04be0000000600e48240004b
:1046a0001078a30007003200640240001178a300d4
:1046b0003400be001401be00040032000330a70025
:1046c000000006003500be001501be000330a0004a
:1046d0000000060005ff2700058261000700320088
:1046e0000428e10001003200240005000600070054
:1046f00001003a004400050004080500020007001c
:10470000f9ff3a00140005006f8261008102700019
:1047100085027100850272000000060080007800aa
:104720005002be005003be004439de00f700b20064
:10473000f37f200003016100090032000218e1004c
:1047400016003a00850172008301730083817300b3
:104750000008200015003a00400020001300370038
:1047600085017200830173008381730005003a00a4
:1047700004a8be0006a8be00100020000b003700f1
:104780000201e9000402420085824a0006034b0050
:1047900087834b000748a300f9ff32000740a000c1
:1047a00004a8be0006a8be002000200080009800db
:1047b0009200980000000600881f7800030478002b
:1047c0000300e00007003d0060001000e0801800da
:1047d00060011900e081190002003b0001f02d008a
:1047e000030037000400070008f0a70003f0a00052
:1047f0004f04780000000600889fbe000082700011
:10480000040271000482710024003200364320004b
:10481000c50020008383cf000a0039000541b100a4
:104820008283cf00070039000541b1008183cf00aa
:10483000040039000541b1008083cf000100390038
:104840000541b10085c353006022b8001200320058
:104850000a003b0084827200610260008301d10083
:104860000281d3008180d3000080d3000603e800da
:104870008743e800f7ff3a000700370000004000d8
:104880008180480002014900838149000603e90054
:104890008743e900f9ff3a00cafd07004f04be0054
:0448a000000006000e
:020000040000fa
:1048a400736f000075720000636500002f43000001
:1048b40075620000654300006f6e000074720000b2
:1048c4006f6c00002f730000726300002f4c000017
:1048d4006564000043750000626500002e630000fb
:1048e4003a31000031370000204c000045440000fc
:1048f40043550000424500005f4d0000494e000052
:104904005f580000595a0000203c00003d20000080
:104914005f78000020260000262000004c4500009f
:104924004443000055420000455f00004d41000033
:10493400585f0000585900005a2000003e3d000016
:10494400205f000078000000736f000075720000a3
:10495400636500002f43000075620000654300009a
:104964006f6e0000747200006f6c00002f73000003
:10497400726300002f4c0000656400004375000062
:10498400626500002e6300003a31000031390000f6
:10499400204c0000454400004355000042450000ff
:1049a4005f4d0000494e00005f580000595a000056
:1049b400203c00003d2000005f790000202600001c
:1049c400262000004c4500004443000055420000ee
:1049d400455f00004d410000585f00005859000039
:1049e4005a2000003e3d0000205f000079000000d6
:1049f400736f000075720000636500002f430000b0
:104a040075620000654300006f6e00007472000060
:104a14006f6c00002f730000726300002f4c0000c5
:104a24006564000043750000626500002e630000a9
:104a34003a31000032310000204c000045440000af
:104a440043550000424500005f4d0000494e000000
:104a54005f580000595a0000203c00003d2000002f
:104a64005f7a000020260000262000004c4500004c
:104a74004443000055420000455f00004d410000e2
:104a8400585f0000585900005a2000003e3d0000c5
:104a9400205f00007a000000736f00007572000050
:104aa400636500002f430000756200006543000049
:104ab4006f6e0000747200006f6c00002f730000b2
:104ac400726300002f4c0000656400004375000011
:104ad400626500002e6300003a31000032340000a9
:104ae400204c0000454400004355000042450000ae
:104af4005f4d0000494e00005f4900004e54000025
:104b0400454e00005349000054590000203c000069
:104b14003d2000005f720000656400002026000054
:104b2400262000004c45000044430000554200008c
:104b3400455f00004d410000585f0000494e0000f1
:104b4400544500004e530000495400005920000011
:104b54003e3d0000205f000072650000640000001c
:104b6400736f000075720000636500002f4300003e
:104b740075620000654300006f6e000074720000ef
:104b84006f6c00002f730000726300002f4c000054
:104b94006564000043750000626500002e63000038
:104ba4003a31000032360000204c00004544000039
:104bb40043550000424500005f4d0000494e00008f
:104bc4005f4900004e540000454e00005349000068
:104bd40054590000203c00003d2000005f670000a5
:104be40072650000656e000020260000262000008b
:104bf4004c4500004443000055420000455f00005e
:104c04004d410000585f0000494e0000544500002b
:104c14004e53000049540000592000003e3d00005e
:104c2400205f000067720000656500006e000000f0
:104c3400736f000075720000636500002f4300006d
:104c440075620000654300006f6e0000747200001e
:104c54006f6c00002f730000726300002f4c000083
:104c64006564000043750000626500002e63000067
:104c74003a31000032380000204c00004544000066
:104c840043550000424500005f4d0000494e0000be
:104c94005f4900004e540000454e00005349000097
:104ca40054590000203c00003d2000005f620000d9
:104cb4006c7500006520000026260000204c0000d2
:104cc4004544000043550000424500005f4d00008c
:104cd400415800005f4900004e540000454e00005a
:104ce4005349000054590000203e00003d200000bc
:104cf4005f6200006c750000650000004c650000f8
:104d04006443000075620000655f00007365000085
:104d14007450000069780000656c000028250000cc
:104d2400752c000020250000752c000020250000b3
:104d3400752c000020200000257500002c200000a8
:104d4400257500002c20000025750000290a0000ac
:104d540000200000200000004c65000064430000b7
:104d640075620000655f0000736500007450000008
:104d740069780000656c000000000000736f00009b
:104d840075720000636500002f4c0000696200002a
:104d94007261000072790000466900006c650000d1
:104da400732f000073720000632f0000427500002f
:104db4007a7a0000657200002e6300003a39000020
:104dc400332000005f66000072650000717500000a
:104dd400656e000063790000203e00003d20000065
:104de400425500005a5a0000455200005f4d000031
:104df400494e00005f460000524500005155000036
:104e0400454e0000435900002026000026200000e3
:104e14005f6600007265000071750000656e000039
:104e240063790000203c00003d2000004255000052
:104e34005a5a0000455200005f4d000041580000de
:104e44005f4600005245000051550000454e0000e9
:104e540043590000007300006f7500007263000086
:104e6400652f00004c69000062720000617200004e
:104e740079460000696c0000657300002f73000020
:104e8400726300002f420000757a00007a6500000a
:104e9400722e0000633a000039350000205f0000e4
:104ea400746900006d650000203e00003d20000094
:104eb400425500005a5a0000455200005f4d000060
:104ec400494e00005f540000494d00004520000099
:104ed40026260000205f0000746900006d65000054
:104ee400203c00003d200000425500005a5a0000ba
:104ef400455200005f4d0000415800005f5400001f
:104f0400494d0000450000003031000032330000fc
:104f140034350000363700003839000041420000c3
:104f24004344000045460000004100006e2000009c
:104f34004f76000065720000727500006e2000005c
:104f440045720000726f000072200000686100006a
:104f54007320000062650000656e0000206400009c
:104f6400657400006563000074650000642e000031
:104f740000000000010200000408000010200000ee
:104f8400408000004c61000079650000724300001d
:104f94006f6e0000747200006f6c00005f7500009b
:104fa400706400006174000065000000506100003e
:104fb4006e6500006c4300006f6e000074720000a8
:104fc4006f6c00005f750000706400006174000085
:104fd400650000004c650000644400007269000034
:104fe40076650000725f0000757000006461000067
:104ff400746500000000000006080000060b0000b5
:020000040000fa
:105004000608000016060000020000000000000070
:10501400000000000000000000000000000000008c
:10502400000000000000000000000000000000007c
:10503400000000000000000000000000000000006c
:10504400000000000000000000000000000000005c
:105804000000000000000000000000000000ff0095
:105814000000000000ff000000000000ff00000086
:105824000000ff000008100018000000000800003d
:105834000200000002000000060800000208000048
:105844000200000000000000ce100000180000005c
:10585400000000001c0e0000080100000000000011
:105864000408000002000000020000001c0e0000fa
:105874006a1000002800000002000000496e2000a9
:1058840066756e00637469006f6e200000202d0041
:105894002d200000202d2d002061730073657200ff
:1058a40074696f006e20660061696c0065640a00ab
:1058b40000000000240f0000880000000200000027
:1058c40001000000004a0f004b0f4a000f4a0f006e
:1058d4004a0f4a000f3a0f000000000000000000c9
:1058e40000000000000000000000000000000000b4
:1058f4000000000000020800010172000f730f0095
:10590400720f72000f720f00720f62000f0000001e
:105914000000000000000000000000000000000083
:105924000000000000000000000002000802020065
:105934009a0f9b000f9a0f009a0f9a000f9a0f006c
:105944008a0f0000000000000000000000000000ba
:105954000000000000000000000000000000000043
:10596400240f4c000f740f00000000000000000022
:105974000000000000000000b41000001a00000045
:1059840002000000686a6c00747a4c000000010098
:1059940000020000040008000010000000002000c5
:1059a4002b2d230030000000e61000000c00000046
:1059b40000000000f21000000600000002000000d9
:1059c40026102200002200002610000044000000df
:1059d40000000000ac0f00007a000000020000008c
:1059e4006e616e00004e41004e0069006e6600005c
:1059f400494e46000030310032333400353637002a
:105a04003839610062636400656600003031320039
:105a140033343500363738003941420043444500b9
:105a240046000000000000000000240040000000c8
:105a34000000000000594000000000000000880041
:105a4400c34000000000000084d79700410080009c
:105a5400e0377900c3414300176e0500b5b5b800bf
:105a64009346f500f93fe900034f38004d321d001d
:105a740030f9480077825a003cbf73007fdd4f0045
:105a840015750000921000002200000002000000c2
:105a94003031320033343500363738003941420072
:105aa400434445004600300031323300343536007b
:105ab40037383900616263006465660000000000e5
:105ac400fc1000000200000000000000fe100000b6
:105ad400020000000200000004000000f8100000b2
:105ae400040000000000000000110000020000009b
:105af400020000003000000002110000020000005b
:105b04000200000001000000041100000200000077
:085b1400000000000000000089
:020000040000fa
:105b1c000400fa00008fbe001e0078004f00de006b
:105b2c000000a20000f0a7000000ea000000ea005c
:105b3c004f00de00004078000080fa0000000600f4
:105b4c000800fa00008fbe00220798003307980067
:105b5c001e01be002e009000be00900000006900e7
:105b6c00818069004f08de00004078000080fa0058
:105b7c00000006000800fa00008fbe002207980003
:105b8c00330798001e01be002e009000be0090004e
:105b9c000001690081816900160020002e00900030
:105bac00be0090001e02be00800f5200818f5a0072
:105bbc00010035000003eb000600ea00cf80de0098
:105bcc00020278000301780080017800010078005f
:105bdc0003026200000061008000eb00c000dd00e9
:105bec00000020000001be006120b800000171001f
:105bfc00818171002e009000be00900000006900b1
:105c0c00818069000080fa00000006000800fa009c
:105c1c00008fbe0022079800330798001e01be00bb
:105c2c002e009000be009000000169008181690087
:105c3c00160020002e009000be0090001e02be0038
:105c4c00800f5200818f5a00010035000003eb00d9
:105c5c000600ea00cf80de00020278000301780023
:105c6c0080017800010078000302620000006100ee
:105c7c008000eb00c000dd00000020000001be0031
:105c8c006120b80000017100818171003e00690043
:105c9c00ae8069000080fa00000006000400fa00e3
:105cac00008fbe001e00be00e00f5000e08f5800b9
:105cbc00170032000082eb008082eb003e014200b4
:105ccc00ae814a001e00be0002027800030178007b
:105cdc00800178000100780003026200000061007e
:105cec008000eb00c000dd00000020000001be00c1
:105cfc006120b8000001710081817100e00f51003a
:105d0c00e08f590002003a0010002000010037001b
:105d1c000000eb00004078000080fa000000060054
:105d2c000800fa00000f780012079800230798006b
:105d3c00614798001e0078001002be006e40900073
:105d4c000080fb000000ea006101b9001e00780031
:105d5c001000be0000016900818169001e009000e6
:105d6c00ae009000020378000301780080017800f7
:105d7c000100780003036300000061008000eb0069
:105d8c00c000dd00000020000001be006130b80042
:105d9c00000171008181710002006a0083806a0039
:105dac001e0178000089be000080fa000000060089
:105dbc000c00fa00008fbe002207980033079800f1
:105dcc0044079800550798001e01be002e00900055
:105ddc00be00900000016900818169004e009000b6
:105dec00de00900002027800030178008001780048
:105dfc000100780003026200000061008000eb00eb
:105e0c00c000dd00000020000001be006120b800d1
:105e1c0000017100818171003e006900ae80690053
:105e2c000080fa00000006000600fa001007980037
:105e3c00210798001e009000ae0090000002be00ea
:105e4c004fabde0086037800f0ff2000010020003d
:105e5c006011b800000062008180620002016300e2
:105e6c00838163001400210005102000060120002e
:105e7c001700200094ec07000203be000002be00d5
:105e8c001042280001212400821022004308200027
:105e9c000000620081806200020163008381630064
:105eac00f4012000050020006033b80024ec07004a
:105ebc00004f78001e019000ae01900000002f00f2
:105ecc00f10f2000020278000301780080017800b5
:105edc000100780003026200000061008000eb000a
:105eec00c000dd00000020000001be006120b800f1
:105efc000001710081817100441add004c10de003c
:105f0c0000007200cc98de004f89de008201780020
:105f1c0014002100051020000601200017002000ad
:105f2c0069ec07000203be000002be00104228000c
:105f3c00012124008210220043082000000062008e
:105f4c00818062000201630083816300f401200000
:105f5c00050020006033b800f9eb07000040780022
:105f6c001e4f40001e009000ae0090004888de00de
:105f7c00cf80de004f89de00820178001400210002
:105f8c000510200006012000170020004eec070031
:105f9c000203be000002be001042280001212400b2
:105fac008210220043082000000062008180620001
:105fbc000201630083816300f401200005002000ce
:105fcc006033b800deeb0700004078001e4f400045
:105fdc001e4078000080fa00000006000800fa005d
:105fec0020079800310798002e019000be01900008
:105ffc00028fbe001e00be008100d1000080d300c5
:10600c001e01be00001f6900019769001e00be0042
:10601c00ce09dd004200de0000807100c208de0007
:10602c001e01be00001f69000197690010112100bc
:10603c00111121001e01be0002027800030178003c
:10604c00800178000100780003026200000061000a
:10605c006101b800c011dd00020020000200be008a
:10606c006121b800020070008380700012112100c1
:10607c000289b90002017800131121000382b900d2
:10608c008401780003014100131121000300b800c2
:10609c000101410082007800008fbe00008fbe001d
:1060ac001e00be004c09de00030020001000200082
:1060bc0001002000020278000301780080017800c2
:1060cc000100780003026200000061008000eb0018
:1060dc00c000dd00000020000001be006120b800ff
:1060ec0000017100818171000280710000f0a70035
:1060fc000000ea000000ea004f00de0000407800db
:10610c000080fa00000006000200fa00000f780080
:10611c001e007800104078000080fb008000eb002f
:10612c006011b8002420200025202000260020002b
:10613c0007002000e4eb07000203be000002be00d3
:10614c0000012200214428008210200003002000be
:10615c0000006200818062000201630083816300a1
:10616c00f43f2000050020006033b80074eb0700fa
:10617c00804078001e007800014878000080fa000a
:10618c00000006000200fa00881f7800000f78005b
:10619c001e0078001000be008101d1000081d300e8
:1061ac005055250051552500020278000301780056
:1061bc008001780001007800030262000000610099
:1061cc008000eb00c000dd00000020000001be00dc
:1061dc006120b80000017100818171001e007800ff
:1061ec001002be00505525005155250004047800be
:1061fc000502780080027800010078000504640034
:10620c00000062008000eb00c000dd0000002000f8
:10621c000002be006140b800000272008182720070
:10622c000400420085804a000000710081807100ea
:10623c001e0178000089be001e0078001000be0010
:10624c00c209de004e0add004201de0002017200ce
:10625c00303323003133230002027800030178002d
