:020000040000fa
:080000000002040000000000f2
:020000040000fa
:100008009a0200009a0200009a0200009a02000078
:100018009a0200009a0200009a0200009a02000068
:100028009a0200009a0200009a0200009a02000058
:100038009a0200009a0200009a0200009a02000048
:10004800924900009a0200009a020000f04700005e
:100058009a0200009a0200009a0200009a02000028
:100068009a0200009a0200009a0200009a02000018
:100078009a0200009a0200009a0200009a02000008
:100088009a0200009a0200009a0200009a020000f8
:100098009a0200009a0200009a0200009a020000e8
:1000a8009a0200009a0200009a0200009a020000d8
:1000b8009a0200009a0200009a0200009a020000c8
:1000c8009a0200009a0200009a0200009a020000b8
:1000d8009a0200009a0200009a0200009a020000a8
:1000e8009a0200009a0200009a0200009a02000098
:1000f8009a0200009a0200009a0200009a02000088
:100108009a0200009a0200009a0200009a02000077
:100118009a0200009a0200009a0200009a02000067
:100128009a0200009a0200009a0200009a02000057
:100138009a0200009a0200009a0200009a02000047
:100148009a0200009a0200009a0200009a02000037
:100158009a0200009a0200009a0200009a02000027
:100168009a0200009a0200009a0200009a02000017
:100178009a0200009a0200009a0200009a02000007
:100188009a0200009a0200009a0200009a020000f7
:100198009a0200009a0200009a0200009a020000e7
:1001a8009a0200009a0200009a0200009a020000d7
:1001b8009a0200009a0200009a0200009a020000c7
:1001c8009a0200009a0200009a0200009a020000b7
:1001d8009a0200009a0200009a0200009a020000a7
:1001e8009a0200009a0200009a0200009a02000097
:0801f8009a0200009a020000c7
:020000040000fa
:100208009a0200009a0200009a0200009a02000076
:100218009a0200009a0200009a0200009a02000066
:100228009a0200009a0200009a0200009a02000056
:100238009a0200009a0200009a0200009a02000046
:10024800924900009a0200009a020000f04700005c
:100258009a0200009a0200009a0200009a02000026
:100268009a0200009a0200009a0200009a02000016
:100278009a0200009a0200009a0200009a02000006
:100288009a0200009a0200009a0200009a020000f6
:100298009a0200009a0200009a0200009a020000e6
:1002a8009a0200009a0200009a0200009a020000d6
:1002b8009a0200009a0200009a0200009a020000c6
:1002c8009a0200009a0200009a0200009a020000b6
:1002d8009a0200009a0200009a0200009a020000a6
:1002e8009a0200009a0200009a0200009a02000096
:1002f8009a0200009a0200009a0200009a02000086
:100308009a0200009a0200009a0200009a02000075
:100318009a0200009a0200009a0200009a02000065
:100328009a0200009a0200009a0200009a02000055
:100338009a0200009a0200009a0200009a02000045
:100348009a0200009a0200009a0200009a02000035
:100358009a0200009a0200009a0200009a02000025
:100368009a0200009a0200009a0200009a02000015
:100378009a0200009a0200009a0200009a02000005
:100388009a0200009a0200009a0200009a020000f5
:100398009a0200009a0200009a0200009a020000e5
:1003a8009a0200009a0200009a0200009a020000d5
:1003b8009a0200009a0200009a0200009a020000c5
:1003c8009a0200009a0200009a0200009a020000b5
:1003d8009a0200009a0200009a0200009a020000a5
:1003e8009a0200009a0200009a0200009a02000095
:0803f8009a0200009a020000c5
:020000040000fa
:10040000af1721000e7f22000e01880000000000bf
:10041000000020000000e000020032000001200087
:10042000200288000c000700a04e230001002000dd
:1004300011000700000020000000e0000200320070
:100440000000020000000000a44f020000000000b5
:100450000040da000000fe004440a900c0a62000d1
:100460000000e0000300320000002000a00188002e
:100470004440a80000000600910188008000780038
:100480000000eb0015003700e280400032a0b4000d
:100490009101ba00e280400032a0b4009102ba009b
:1004a000e280400032a0b4000002eb00472bde00e7
:1004b000f507b200602ce10004003a000059eb009f
:1004c0008301e900fdff3e00040037006128e100e0
:1004d000010032000082eb00040007001101ba00a5
:1004e0000200e000e8ff3a00000006003159ba00bf
:1004f0008301e9000c0032002159ba008301e900b0
:10050000080032000400e00003003a00e2804000ee
:1005100032a0b400f5ff370011d9ba008301e90019
:10052000faff3a008100e800e180400032a0b40008
:10053000000006000040da000000fe000a00fa0099
:10054000e20f500020003e00c08b8000e10f500001
:1005500006003200802320004523200023232000b2
:10056000042320000000e00004003a008022200064
:10057000452220002322200004222000060028001b
:100580001403630003003a00060878000000280006
:10059000140a700013a8a30001003a0013a0a000e1
:1005a00002007800050037001388a300feff320028
:1005b0003102fb00840a78000000e9000000e0003e
:1005c000f9ff3a000800370033002000b3bf9f0056
:1005d000c0bf9f00d1bf9f00e2bf9f006a8057004d
:1005e000030e07006fb99700020078000080fa0040
:1005f0000000060003f0a200889fbe008a9fbe0094
:100600008c1f780002010700090133006450e100eb
:100610004f0032006420e1005200320003826c007f
:1006200007003b000905d0000306d000820f5400ec
:100630000c065d00020039000200320089017800da
:10064000030678008582550004003d000003fd008c
:100650008103fd008502ea008b854200840f720051
:1006600002003b0060001000e08018006011b8003c
:100670000005eb007a28e1000a0039000600780046
:10068000c75ddd00f707b200878075002d003700d9
:10069000828171000a017800610560008180d100cb
:1006a0000080d3008502e900f9ff3b00060440000a
:1006b0008784480002003b0060041400e0841c00b2
:1006c0000988a300070032008a81710082817100cd
:1006d000610164008904d1000884d3008b05e8001f
:1006e000170037000978a30013003a000b00e00060
:1006f000130034008b05e9000804440089844c0091
:100700000a4474000978a3000d003a000b00e000d1
:10071000070034008b05e9000804440089844c007c
:1007200001003a000b0020000978a300f7ff320017
:100730000001eb0002003700828171000a0178009d
:10074000780007000cf0a70001f0a000c1003700fe
:100750006420e10002003a00838f6c00c100330086
:100760000801be000200be00ba003700889fbe002c
:100770008a9fbe008c1f7800a5000700ac003300e4
:1007800003866c006450e1002e0032006420e1001a
:10079000330032006150e1002f0032006120e1009f
:1007a0003100320085855500eb07b00009002000bc
:1007b00008042000050037000804440089844c0028
:1007c0000a0031000603430087834b0000015300f9
:1007d00081815b00f8ff33000203be000800a00027
:1007e0000804440089844c00f6ff3900c639dd0056
:1007f0008301730001003200130020008904d1003e
:100800000884d3000998a300050032000800a7005f
:100810000300a0008904d1000884d3008b05e80000
:100820008904d1000884d3000001eb000281d200ca
:100830003c00070001f0a1000cf0a70001f0a000af
:10084000840037006420e100860032000801be0009
:100850000200be00f7ff37006120e1008100320096
:100860006000b800f3ff37000000200001f8270007
:10087000f0ff3700839f68000100e00002003d00a8
:1008800060001000e08018000300e00002003d005e
:1008900060011100e0811900b80007004f00e0007e
:1008a00002003b0060001000e0801800000006001d
:1008b0000001be00410007000470a70003f0a10082
:1008c00003f8a30013003a006509b10010003200dc
:1008d000090035006928e100020035000100280008
:1008e0000000050000004000818048008502e9000a
:1008f000fcff3a0000000600f88f420005003500ba
:100900008100d1000080d3008502e800fcff3a009e
:10091000000006008000eb00000005006011b80038
:10092000d401370081002000618055000b003d009c
:100930000b00200061fe2f000100e1001d003400cb
:1009400082817100610164008904d1000884d300b0
:100950000000e800faff3a00710020006100640026
:1009600003007000020060000900320061044400ce
:10097000e0844c000988a500050032008b05e800e2
:100980006808e10002003a008904d1000884d3001d
:10099000f20f20000258e10005003d00c75ddd00b8
:1009a000f907b20089807500080078000000060091
:1009b0000bf827008b00780000000500c70ade0056
:1009c000f107b200f50fb20008003200e1cf42009b
:1009d000020032000170a00024000500810f7000a9
:1009e000010032000408050044000500810f70007a
:1009f00002003a00140005008502e90000004000f2
:100a000081c04800fcff3b000170a00024000500ed
:100a10000004be00e9ff07000003be000405be009d
:100a20000200be00e5ff0700844f750000000600cd
:100a30000200be006450e100050036006420e100c1
:100a4000020036000968a30001003a000800be0059
:100a50000160a0004f0678004f05be004f04be00a5
:100a600000000600f0ff2f00f1ff2700f9ff37001c
:100a7000811f78000100e00002003d0060001000ce
:100a8000e08018000300e00002003d00600111005a
:100a9000e0811900490007004f00e00002003b0020
:100aa00060001000e080180000000600889fbe0073
:100ab0008a9fbe008c1f7800d5ff0700dcff330043
:100ac00003866c006450e100240032006420e100e1
:100ad000270032006150e100220032006120e10075
:100ae000210032008b854200eb07b1000134b800d1
:100af000003ab8000804420089844a00013ab8006c
:100b00000030b8008880400009014a00040033002a
:100b10000000400081804800020149008b05e90087
:100b2000c909dd00830170000100320013002000bc
:100b3000c814de004814dd004709de001200b200d0
:100b4000c808de000884700076ff070001f0a100ed
:100b50000cf0a70001f0a000beff37006120e1000b
:100b6000c0ff32000801be000200be00f7ff3700e0
:100b70006150e100fcff3a00baff37006022b80084
:100b8000060220000000d0008180d2000482d20042
:100b90008582d2000000a0000202520083825a0027
:100ba000030031000202420083824a000000a100db
:100bb0000603e900f3ff3a0000000600efff07001c
:100bc0000400be0000000600889fbe008a9fbe0091
:100bd00030044200b0844a0030054b0090854b0041
:100be0006000b1000898be000a90be000440e10019
:100bf00005c8e10006d0e10007d8e100020031009d
:100c0000680040001008e8004f05be004f04be0019
:100c100000000600889fbe008a9fbe003004be0010
:100c20002005be000418540005985c0006185d00fd
:100c300007985d00110020000440e10005c8e100b4
:100c400006d0e10007d8e100010039008000eb0088
:100c5000108810004f05be004f04be0000000600c3
:100c60001200fa00889fbe008a9fbe008c9fbe00c3
:100c7000e0b79f00f1b79f0082bf9f0093bf9f0026
:100c80000605be000404be000000eb00d0b79f00c4
:100c9000c0b79f00b0b79f00a0b79f0090b79f005c
:100ca0000006eb005fb19700cfb0970082014100d2
:100cb0003fb097000200e00004003d00370007004d
:100cc0007e805700c0ff0700030037003300070095
:100cd0007e805700cfff0700dfb697000d00e000d1
:100ce0000c0035006fb29700ffb297000fbb970062
:100cf0009fbb970010002000010020006011b80089
:100d00000002720081827200020373008383730009
:100d10001b0007000c06e80001042000810f5600ac
:100d2000e0ff3a000d00e00004003d000802be00b4
:100d30000a03be007e805700a3ff07005fa897004c
:100d40000000e00005003a001fb29700afb2970024
:100d50003fb39700cfb39700090007006fb097002b
:100d6000ffb097000fb997009fb997004f06be00dc
:100d70004f05be004f04be000080fa0000000600d0
:100d80000100070000000600a4b79f00b5b79f0050
:100d9000c6b79f00d7b79f00000006004f09de00ce
:100da00082817100b3b79f004f01de008180400057
:100db00082807000a1b79f008fb097004f09de00be
:100dc000000040000200700090b79f007fa89700cd
:100dd0004f01de00818040008280700081b79f005b
:100de0000d0007004f3ade000000400004007000d4
:100df000f0af9f00080007000402420085824a000d
:100e000006034b0087834b00dfff07000802be008c
:100e10000a03be00000006002fb29700bfb2970081
:100e20004fb39700dfb3970000000600881f7800db
:100e300018002000881f780089ff07008f87e900cd
:100e40004f04780000000600801feb0084ff0700bd
:100e50008f87e90000000600889fbe008a9fbe00c1
:100e6000e00f5000e08f5800e00f5900e08f59006c
:100e70000c003d006044b8006055b800000054000c
:100e800081805c0002015d0083815d00180020000c
:100e90001500070008003d00180007000004eb00e3
:100ea000050037000004eb000f00070002003d00c2
:100eb0001200070018002000dcff07000800e00017
:100ec000060032006022b8006033b8000000520013
:100ed00081805a0002015b0083815b004f05be00e8
:100ee0004f04be0000000600e00f5200e08f5a00e1
:100ef000e00f5b00e08f5b00000006006044b8007c
:100f00006055b8000402540085825c0006035d0051
:100f100087835d0000000600889fbe008a9fbe0098
:100f20008c1f7800e00f5000e08f5800e00f590050
:100f3000e08f59000d003d006044b8006055b800d6
:100f40000000540081805c0002015d0083815d002f
:100f50001c0020000820e10009a8e1000ab0e1001f
:100f60000bb8e1000d003d00080037000006eb0063
:100f7000e00f5200e08f5a00e00f5b00e08f5b0053
:100f800006003d006044b8006055b80004025400fb
:100f900085825c0006035d0087835d00aaff070071
:100fa0000c00e000060032006022b8006033b80098
:100fb0000000520081805a0002015b0083815b00c7
:100fc0004f0678004f05be004f04be00000006002b
:100fd000889fbe008a9fbe008c1f78000006eb0031
:100fe000e00f5000e08f5800e00f5900e08f5900eb
:100ff00007003d006044b8006055b8000000540090
:1010000081805c0002015d0083815d001c00200086
:10101000e00f5200e08f5a00e00f5b00e08f5b00b2
:1010200007003d006044b8006055b8000402540059
:1010300085825c0006035d0087835d000c00a200d2
:101040003b0007000c00e000060032006022b80000
:101050006033b8000000520081805a0002015b003a
:1010600083815b004f0678004f05be004f04be0031
:1010700000000600889fbe008a9fbe0000827000ac
:101080000402710004827100260032000004be00d8
:101090000200be006011b8006b092000950220001c
:1010a0000182cf000a0039000541b1000082cf0063
:1010b000070039000541b1000982cf000400390062
:1010c0000541b1000882cf00010039000541b1009f
:1010d00005425200120032000a003b00828171007a
:1010e000610164008100d1000080d3008984d300b5
:1010f0000884d3008b05e8000442e800f7ff3a00bb
:10110000070037000804440089844c0000004800b0
:10111000818048008b05e9000442e900f9ff3a00ac
:1011200000fe07004f05be004f04be000000060091
:10113000889fbe008a9fbe008c9fbe000404b8003a
:101140000506b8008904460060854e000606b80012
:101150000a054600e0854e000706b8008b054600ec
:10116000040eb800890446000a854e00e0854d0053
:10117000050eb8000a0546008b854e00060eb80025
:101180008b0546000416b8000a0546008b854e0004
:101190000516b8008b054600041eb8008b054600f6
:1011a0000800be000a01be004f06be004f05be008b
:1011b0004f04be00000006008001780002003700e6
:1011c000815978000201e9000200e000fcff3a00ca
:1011d000000006000c00fa00889fbe0000047800a2
:1011e000f0ff2700d0bf9f008004eb0099bf9f0055
:1011f00088bf9f00a8bf9f00200c2000b0bf9f00a9
:1012000070805700cf0007000fb89700094878009a
:101210008fb89700088050004f04be000080fa008d
:10122000000006000800fa00889fbe008a9fbe00ea
:101230000084fb00d1c6b300814f5000340036005b
:101240004b062000110009000b84d80081057800ae
:10125000720040004300dd00a9ec20000080440043
:101260006022b8000600200007fe23005001be00e7
:101270004000be00cb0c07000002be000203be000f
:1012800084bf9f0095bf9f00a6bf9f00b7bf9f0070
:10129000aa002000110009008a85d8008005780086
:1012a000e9854500c35ddd008b8544003b02be003f
:1012b0002b03be000fb897009fb897002fb9970077
:1012c000bfb99700b70c07000002be000203be00c2
:1012d00084bf9f0095bf9f00a6bf9f00b7bf9f0020
:1012e000110009000a84d800010478004344dd009d
:1012f000888444003902be002903be000fb897005d
:101300009fb897002fb99700bfb997001d0037000d
:10131000ea4f500013003600aa0020001100090017
:101320000a84d80001057800690440004344dd00c8
:10133000a9ec2000088444006022b80006002000c8
:1013400007fe23003800be002801be00950c0700f0
:101350004355dd008a8444003902be002903be00e3
:10136000080037004344dd00a0ec200008044000e2
:101370006022b8000600200007fe23003800be00ef
:101380002801be00870c07004f05be004f04be00b9
:101390000080fa00000006000800fa00889fbe00e6
:1013a0008a9fbe00d1c6b3000004e00023003d00c8
:1013b0000040ea000004fb00814f50000a003400a6
:1013c00042062000110009000204d800a9002000f4
:1013d000110009008900d800e9004000c308dd00c1
:1013e000aaec200021003700ea4f50001000340022
:1013f000a2002000110009000204d80001017800b9
:10140000690040004300dd00a1ec200000804000a6
:101410004311dd00828040003102be002103be0086
:101420005001be004000be005e0c070038003700cf
:101430004344dd00a0ec2000320037000004fb0034
:10144000814f5000230034004206200011000900a3
:101450000204d800a9002000110009008900d8006a
:10146000e9004000c308dd00aae12000810045003a
:101470003102be002103be008b0920008a85450091
:101480003b00be002b01be00460c07000002be0060
:101490000203be0084bf9f0095bf9f00a6bf9f00b0
:1014a000b7bf9f00110009000904d80001047800ab
:1014b0004344dd00080545003a02be002a03be0091
:1014c0000fb897009fb897002fb99700bfb9970042
:1014d000d5ff3700ea4f500008003400a20020007a
:1014e000110009000204d8000101780069004000e1
:1014f0004300dd00a1e12000c4ff37004344dd00cc
:10150000a0e12000080440003800be002801be0011
:101510004f05be004f04be000080fa000000060028
:10152000d0019000028151004240a9000300340024
:1015300010017800014978000208e80001007800f5
:1015400000000600cf03b000889fbe008a9fbe0047
:101550008c9fbe008e1f78000006780091a79f0028
:10156000a2af9f006000b8006011b800a0a79f0064
:10157000b1a79f00c2a79f00d3a79f008006eb00e2
:101580008d0937009fa097008100e80091a79f0078
:1015900051c2b300814f500003003a001fa19700d1
:1015a0000007eb0011003700bc0090000000fb00ba
:1015b0000168a300070032000d0178008000780068
:1015c0000c007800d6ff07000000e00005003a009c
:1015d000790937008c00780083090700e10f40008b
:1015e000750932008d06e8007309370002007800a3
:1015f000b2407800b3c2b30083cf50001300320072
:1016000007003c00ebc1510083cf50000d003200b9
:10161000e3c1410083cf500012003a000d003700b3
:10162000d3c2b30083cf500004003200e3c14100b5
:1016300083cf50000b003a00080037000e30a000a6
:10164000eaff37000e00a000e8ff37000e10a000f0
:10165000e6ff37000eb0a000e4ff37000e20a00028
:10166000e2ff37000e18a300010032000e00a100b7
:101670000e38a300010032000e20a1000101fb0082
:101680000203b100e90f51000e003e008000780017
:101690000001eb0082b79f006a11b9003100fb0026
:1016a0000003b10002014000010078009101fb003d
:1016b0000303b100e98f5100f7ff360082b79f00a6
:1016c0000a0037008001eb0083b79f00a2c2b3007d
:1016d00082cf500005003a002faa9700c40278007c
:1016e000a4af9f0085b79f000000e800e1c2b300ef
:1016f00090cf100017003a000ee0a000e4c05000a8
:10170000d0cf100003003200800078008001eb0091
:1017100009003700afab970047047800a7af9f00e0
:10172000f8af9f000000e800800078000d0037004f
:101730006a1ab90084014100010078003101fb0000
:101740000203b100e90f5100f9ff3600f3af9f002b
:10175000f5ff37000ec0a0008004eb00f9af9f003a
:10176000f1ff37003140780091a79f0072c6b300a7
:10177000824f50003200320017003c0031c6b300e7
:10178000814f5000c20032000e003c00fcc05000ef
:10179000814f50003d00320006003c000004e00094
:1017a0000a09320081c0e900814f5000d6003a009a
:1017b0003200370081c5b300814f5000d2003a009b
:1017c0003900370051c6b300814f50001e0032006f
:1017d00027003c001e00370002c7b300824f5000b4
:1017e000310032000a003c0064415100824f500039
:1017f00019003200f1c6b300814f500027003200bb
:10180000e6c05000814f5000bf003a001000370082
:1018100051c7b300814f5000c2003200e3c0400006
:10182000814f500004003200e5c05000814f50004d
:10183000b5003a0020003700807f9f001c00370071
:10184000807f9f0013003700807f9f000d003700ce
:10185000807f9f00b5003700000120000e48a300e4
:1018600001003200000028000e077000bdff3700a5
:10187000807f9f000ea0a000ac003700807f9f00fb
:101880000e50a0000e80a000a8003700807f9f00af
:101890000e50a0000e90a000a4003700807f9f0093
:1018a0000e60a000a1003700807f9f000e50a000b6
:1018b0000e70a0009d003700807f9f00afad9700a5
:1018c0004b007800abaf9f0090b79f000000e00096
:1018d00002003a00420a210092b79f009fb0970091
:1018e0000000eb00010037000000e80061417800d3
:1018f0000204e000fcff3a00a0b79f00ffa9970098
:101900000300e000050032002fb29700848f5100e1
:101910000200310083027800a5b79f002fb0970026
:101920000004eb000fb39700800f53000100360056
:1019300000045300680767002d003a0011003700cb
:101940003c0090000068a300070032000d01780001
:10195000010220000c007800f1fe07000000e0000a
:1019600006003a00060037008c00780000022000d4
:101970009d080700e10f4000010032008d06e800dd
:101980000804e9000800e000edff3a000084eb00e5
:101990008e037800f7af9f00170037003c009000df
:1019a0000068a3000900320008007800b000fb00c6
:1019b000000478000d0178000c007800d8fe0700c4
:1019c0000000e00008003a001000370088007800ae
:1019d0003100fb00010478008c00780082080700c9
:1019e000e10f4000090032008d06e80007003700d3
:1019f0008e047800f9af9f00080778001fb49700a5
:101a0000afb497003fb59700cfb5970009007800b5
:101a10008004e9000000e000e0ff3a0098b79f0072
:101a2000a9b79f00bab79f00cbb79f000e047800fc
:101a30007faf97000e00e0005f0832001100370012
:101a40003c0090000068a300070032000d01780000
:101a5000010220000c007800b1fe07000000e00049
:101a600006003a00060037008c00780000022000d3
:101a70005d080700e10f4000010032008d06e8001c
:101a80000804e9000800e000edff3a004a083700ca
:101a9000afa8970041047800a1af9f00cfc4de003b
:101aa000614db9000802be000a03be004822de00f4
:101ab0004829dd0004027100847f9f000e48a300c6
:101ac000090032000404e00007003200e14f420048
:101ad00005003200947f9f00a87f9f002300200014
:101ae000a3b79f0003003700987f9f0014002000d9
:101af000a4b79f0085fb2f008f8242008502e8007b
:101b000095b79f007dff3700807f9f0086fb2f00e9
:101b10000683470096b79f0017002000a7b79f00d5
:101b200076ff3700807f9f000e0cb300007020000e
:101b300000006700990532000ec8a30002003200c1
:101b400068002000f8af9f000e48a3000500320097
:101b50002fa897004005be004004be00a0af9f0024
:101b6000060037002fa997004200be00a2af9f00d9
:101b7000cc0907000004be000205be006022b800c8
:101b80006033b8000800be000a01be001709070054
:101b90000000e00002003d000bf0a2003e00b30098
:101ba0000000eb00e09f9f006022b8006033b800a7
:101bb0000800be000a01be00700907000000e00036
:101bc00033003200c4fb2f000f0242000800be00a9
:101bd0000a01be00560a07006f9897000000e9004e
:101be0006302b900a2002000110009000202d8001f
:101bf000e09f9f000000e00002003d000000e900bf
:101c0000e09f9f006f99970092b79f000240ea0003
:101c1000e1fd07000802be000a03be00610a0700da
:101c20000002be000203be00a4a79f00b5a79f004c
:101c3000c6a79f00d7a79f006022b800060020001b
:101c400007ff2300e90807000000e00003003d0053
:101c50009fb297000500e9000c0037006022b80031
:101c600006002000470224002fa09700bfa0970085
:101c70004fa19700dfa19700e10807000000e000f6
:101c8000030035001fb397000600e800e09f9f00a7
:101c9000ef9b970097b79f000e88a30008003a00bb
:101ca0000e98a3001803320007007800e40f4000ec
:101cb00003003500ffa89700810f50009d023500fa
:101cc0007fa997000200e000040032000e98a300f4
:101cd000020032000201e900f2af9f00ffa9970065
:101ce000f28f51000300360020c1b300807f9f00b7
:101cf000020037006fda9700847f9f006022b800ef
:101d00006033b8000800be000a01be001b090700ce
:101d10000000e000660032008f7a9700e5d79f0050
:101d20002fe39700054053009bfd07000002be0013
:101d30000203be000800be000a01be00b50807008d
:101d40000004be000205be00a6090700f609070050
:101d50000002be000203be000800be000a01be0071
:101d6000850a07006022b8000600200007fe230055
:101d7000a30807000000e000080035006022b8005a
:101d80000600200007fe23000800be000a01be0076
:101d9000190807000004be000205be000800be00ce
:101da0000a01be008f0907000002be006033b800c0
:101db000e4a79f00f5a79f0086af9f0097af9f0005
:101dc000efd297008502fb0085a79f000500e80081
:101dd0004300dd00c60a2100000243003400be00bb
:101de0002401be00b0af9f00c1af9f00d2af9f00e3
:101df000e3af9f006fa29700ffa297000fab970081
:101e00009fab97000020e10001a8e10002b0e100d3
:101e100003b8e1000c0039000400200005002a008e
:101e20009699290097fb23000800be000a01be0016
:101e3000dc0907000004be000205be009fb2970047
:101e40000500e800190037000fa397004332dd00ba
:101e5000c70a2100048243003400be002401be00f2
:101e60006fa29700ffa297000fab97009fab970060
:101e70000020e10001a8e10002b0e10003b8e100a8
:101e80000b0031006022b800060020004702240049
:101e90000800be000a01be00c20907000004be001f
:101ea0000205be009fb297000500e900e09f9f0079
:101eb00001a020008100670000202000808f5000da
:101ec0003d003a007fab9700f40f5300020034004e
:101ed00047012000f7af9f000800be000a01be00c6
:101ee000400907006011b8000802be000a03be00e6
:101ef00094b79f00a5b79f00b6b79f00c7b79f00d4
:101f000009003700ffaa97008502e900f5af9f009e
:101f1000a4002000050020006033b8000800be00c7
:101f20000a01be00c1fb07000205be000004be009e
:101f3000e00f5000e08f5800e00f5900e08f59008b
:101f400009003200a4002000050020006033b80022
:101f5000bdfb0700e00f5000e08f5800e00f590074
:101f6000e08f5900e7ff32001fb49700afb497002d
:101f70003fb59700cfb597000f7897008000fb0022
:101f80007fab9700810f53000b003d0006405000cf
:101f900001fd07000002be000203be000800be00f3
:101fa0000a01be001b0807000004be000205be00b7
:101fb000efdb9700877f9f008fb097006580500010
:101fc0007fa997000200500080b79f000200e00048
:101fd00002003a000eb8a300030032008fb1970050
:101fe0008301e90083b79f006300670003003200ac
:101ff0000fb297000402e90084b79f000e28a300e7
:102000004f0032003c009000610167000e18a300f1
:102010000e0032000068a30006003200b10220006a
:102020000200e000010032008180e8000d0178002c
:102030000c003700b00220000200e0000100320076
:102040000080e8008c0078000d0037000200e000fe
:10205000320032000068a300070032000d01780052
:10206000010220000c0078002dfd07000000e000b8
:1020700006003a00290037008c007800000220009a
:10208000d9060700e10f4000240032008d06e80069
:10209000220037003c0090000068a3000f003200cf
:1020a0000d017800010320000c007800f4b79f00b8
:1020b00085bf9f00d6b79f00e7b79f0018fd0700b8
:1020c0007fb297008fba97005fb39700efb3970086
:1020d0000000e0000e003a000e0037008c0078008f
:1020e00000032000f4b79f0085bf9f00d6b79f0074
:1020f000e7b79f00bc0607007fb297008fba970032
:102100005fb39700efb39700e10f4000010032008a
:102110008d06e8008904e900030037000802be00cc
:102120000a03be008fb497000900e000d9ff3c000d
:1021300089b79f000404be000605be0045003700b5
:102140000e38a30020003a000800be000a01be00bd
:1021500090b79f00a1b79f00b2b79f00c3b79f0081
:102160008fb49700110037003c0090000068a30076
:10217000070032000d017800010220000c007800f9
:10218000e7fc07000000e00006003a000600370008
:102190008c0078000002200093060700e10f400049
:1021a000010032008d06e8008904e9000900e00022
:1021b000edff3c0089b79f001fb49700afb49700b4
:1021c0003fb59700cfb597003c00900061016700d4
:1021d0000e18a3000e0032000068a30006003200b3
:1021e000b10220000200e000010032008180e8001e
:1021f0000d0178000c003700b00220000200e00062
:10220000010032000080e8008c0078000d003700eb
:102210000200e0000f0032000068a3000700320057
:102220000d017800010220000c007800bcfc0700c2
:102230000000e00006003a00060037008c0078003d
:102240000002200068060700e10f40000100320094
:102250008d06e8000800be000a01be006108070004
:102260000002be006033b80094b79f00a5b79f007e
:10227000b6b79f00c7b79f003c019000c00a21007d
:102280008f7a97008500fb000268a30011003200de
:10229000c308dd00810040003102be002103be0002
:1022a0001fb09700afb097003fb19700cfb1970034
:1022b000defa07000003b0000d017800800078000e
:1022c0000c00780096fc07000000e0000f003a00c8
:1022d0000f003700c308dd00810040003102be005e
:1022e0002103be001fb09700afb097003fb1970029
:1022f000cfb19700cdfa07000003b0008c00780042
:1023000039060700e10f4000010032008d06e800a9
:102310000f7b97000600fb004300dd00c10a21008f
:10232000008040003002be002003be001fb09700b6
:10233000afb097003fb19700cfb19700c2fa070046
:1023400090b79f00a1b79f00b2b79f00c3b79f008f
:10235000ffac97000900e00002003a000eb8a300ad
:10236000740032003c0090000068a30007003200b7
:102370000d017800e10220000c00780068fc0700e5
:102380000000e00006003a00060037008c007800ec
:10239000e002200014060700e10f400001003200b7
:1023a0008d06e8000f7c9700e8d79f001fb49700c8
:1023b000afb497003fb59700cfb597003c0037000a
:1023c0000e98a3000d003200e00f5400e08f5c0077
:1023d000e00f5d00e08f5d0008003a0098b79f00b5
:1023e000a9b79f00bab79f00cbb79f008040eb0012
:1023f000817f9f000004eb004c0037003c019000ff
:10240000c10a21000000fb000268a3000f00320097
:102410004300dd00008040003002be002003be000b
:102420000800be000a01be0080fa07000003b000e9
:102430000d017800800078000c00780038fc07005f
:102440000000e0000d003a000d0037004300dd0001
:10245000008040003002be002003be000800be0025
:102460000a01be0071fa07000003b0008c0078007a
:10247000dd050700e10f4000010032008d06e80095
:102480000f7997000200fb004300dd00c10a210024
:10249000008040003002be002003be000800be00e5
:1024a0000a01be0068fa07000205be000004be0073
:1024b0008f7897000140e900807f9f000104e000d1
:1024c000bfff3a0098b79f00a9b79f00bab79f0017
:1024d000cbb79f006fd497000804fb00ffaa9700ba
:1024e00008845200110037003c0090000068a300ef
:1024f000070032000d017800010320000c00780075
:1025000007fc07000000e00006003a000600370064
:102510008c00780000032000b3050700e10f4000a5
:10252000010032008d06e8000804e9000800e00020
:10253000edff3a003c0090000e58a3000800320066
:102540000068a300030032000d0178005104200050
:10255000070037008c007800500420000b00370083
:102560000068a300070032000d017800510620002a
:102570000c007800eafb07000000e00006003a00cb
:10258000060037008c0078005006200096050700f2
:10259000e10f4000010032008d06e800ef9897003f
:1025a0003c0090000100e0000a003d008100ea00cc
:1025b000e19f9f000068a300030032000d01780036
:1025c000d1022000070037008c007800d0022000e4
:1025d0000b0037000068a300070032000d017800ef
:1025e000b10220000c007800cdfb07000000e000e5
:1025f00006003a00060037008c007800b002200088
:1026000079050700e10f4000010032008d06e80067
:10261000bc0090006f9897000168a3000b00320087
:10262000a2002000110009000200d80001032000d0
:10263000808040000d0178000c007800b8fb070096
:102640000000e00009003a0009003700a200200065
:10265000110009000200d8000003b0008c007800cf
:1026600061050700e10f4000010032008d06e8001f
:10267000bc0090006f9897000168a3000a00320028
:10268000a2002000110009000200d8000103b000e0
:102690000d0178000c007800a1fb07000000e000ad
:1026a0000a003a000a003700a200200011000900c9
:1026b0000200d80000032000010040008c007800d8
:1026c00049050700e10f4000010032008d06e800d7
:1026d0000e38a300380532000fb397000600e00063
:1026e00035053400060478003c0090000068a30023
:1026f000070032000d017800010220000c00780074
:1027000087fb07000000e00006003a0006003700e3
:102710008c0078000002200033050700e10f400024
:10272000010032008d06e8000804e900eeff3a00df
:10273000210537009fb397000700e00004003d002b
:102740000780ea00ffa8970080804000f1af9f005b
:102750000800be000a01be00f106070090b79f0006
:10276000a1b79f00b2b79f00c3b79f00c50a210061
:102770000042eb000800be000a01be00b0af9f009f
:10278000c1af9f00d2af9f00e3af9f000c003700a6
:102790003500be003501be001fb49700afb49700ee
:1027a0003fb59700cfb597000040e10001c8e100b8
:1027b00002d0e10003d8e100030039000442e80040
:1027c000f44f5200f2ff3a003fac9700cfac9700b5
:1027d0005fad9700efad97000400fb00ffa89700e6
:1027e00080805000f1af9f00f88f500009003c003e
:1027f000014078008bfa07000002be000203be0011
:102800000800be000a01be007b0507000004be00f0
:102810000205be006fd89700dffa07000002be0075
:102820000203be00b4af9f00c5af9f00d6af9f00ac
:10283000e7af9f001fb09700afb097003fb1970080
:10284000cfb197000d0707000002be000203be00d3
:102850000800be000a01be00c70707000002be0054
:102860000203be003fa89700cfa897005fa997007a
:10287000efa997004b070700a90607000802be0052
:102880000a03be0094b79f00a5b79f00b6b79f008c
:10289000c7b79f000205be000004be000b00370052
:1028a000a4002000050020006033b8000800be002e
:1028b0000a01be005df907000205be000004be006b
:1028c000ffaa97008502e900f5af9f007fab970054
:1028d0000600e00019003200a400200005002000de
:1028e0006033b8000800be000a01be0056f90700b8
:1028f000e00f5000e08f5800e00f5900e08f5900c2
:10290000e7ff32000d003700ffab9700f88f530050
:102910000e003c000740780042fa07000002be00ab
:102920000203be000800be000a01be003205070017
:102930000004be000205be00040037001fb497006b
:10294000afb497003fb59700cfb597006f98970049
:1029500090b79f00e90f500012003c006022b800c1
:102960006033b8000800be000a01be00030607007d
:102970000000e0002f0032000800be000a01be0087
:1029800067060700e00f5000e08f5800e00f590085
:10299000e08f590027003a009fb09700e18f500068
:1029a000240034000400200005002e00b6e02200c0
:1029b000170124002fa09700bfa097004fa19700f8
:1029c000dfa19700890507000000e00003003d003b
:1029d0001fb1970073005100020037009fb19700ac
:1029e00072805100e09f9f004f7897006afa0700bd
:1029f0000002be000203be00a4a79f00b5a79f006f
:102a0000c6a79f00d7a79f000800be000a01be000e
:102a1000800507004206070090b79f00a1b79f00fe
:102a2000b2b79f00c3b79f006044b8006055b800bc
:102a3000110037000800be000a01be00380607007a
:102a400090b79f00a1b79f00b2b79f00c3b79f0088
:102a50008a0607000002be000203be000800be0096
:102a60000a01be00440707000004be000205be00c4
:102a70000000eb00e09f9f00450b210014c0b30055
:102a80000800be000a01be00e0a79f00f1a79f005a
:102a900082af9f0093af9f00100037003504be0047
:102aa0003505be00b8af9f00c9af9f00daaf9f00e9
:102ab000ebaf9f001fb09700afb097003fb19700fa
:102ac000cfb197000800e1000988e1000a90e10019
:102ad0000b98e100030039000442e800f44f520073
:102ae000eeff3a006fa49700ffa497000fad970088
:102af0009fad9700847f9f006f9897008fb09700dd
:102b0000008050007fa99700820050000400fb0065
:102b10000080500080b79f00008020000000670008
:102b2000e0a79f0002003a000200e000030032002c
:102b30008fb197008301e90083b79f0063006700ae
:102b4000030032000fb297000402e90084b79f002f
:102b50000e28a30050003200610167000e18a30088
:102b60000f0032003c0090000068a3000600320015
:102b7000b10220000200e000010032008180e80084
:102b80000d0178000d003700b00220000200e000c7
:102b9000010032000080e8008c0078000e00370051
:102ba0000200e000330032003c0090000068a30007
:102bb000070032000d017800010220000c007800af
:102bc00057fa07000000e00006003a00290037002d
:102bd0008c0078000002200003040700e10f400091
:102be000240032008d06e800220037003c009000ef
:102bf0000068a3000f0032000d01780001032000df
:102c00000c007800f4b79f0085bf9f00d6b79f00e7
:102c1000e7b79f0042fa07007fb297008fba97008c
:102c20005fb39700efb397000000e0000e003a009a
:102c30000e0037008c00780000032000f4b79f00de
:102c400085bf9f00d6b79f00e7b79f00e603070048
:102c50007fb297008fba97005fb39700efb39700ea
:102c6000e10f4000010032008d06e8008904e90010
:102c7000030037000802be000a03be008fb49700ad
:102c80000900e000d9ff3c0089b79f000404be00a2
:102c90000605be007a0037000e38a30020003a0077
:102ca0000802be000a03be00b4af9f00c5af9f007c
:102cb000d6af9f00e7af9f008fb497001100370099
:102cc0003c0090000068a300070032000d0178006e
:102cd000010220000c00780011fa07000000e0005b
:102ce00006003a00060037008c0078000002200041
:102cf000bd030700e10f4000010032008d06e8002f
:102d00008904e9000900e000edff3c0089b79f005d
:102d10003fac9700cfac97005fad9700efad970049
:102d2000610167000e18a3000f0032003c00900004
:102d30000068a30006003200b10220000200e0009b
:102d4000010032008180e8000d0178000d0037009d
:102d5000b00220000200e000010032000080e80024
:102d60008c0078000e0037000200e0003d003200c9
:102d70003c0090000068a300070032000d017800bd
:102d8000010220000c007800e5f907000000e000d7
:102d900006003a003a0037008c007800000220005c
:102da00091030700e10f4000350032008d06e80076
:102db0002c0037003c019000c00a21008100fb007c
:102dc0000268a30013003200c308dd0001004000c8
:102dd0003002be002003be000800be000a01be0093
:102de00012f80700a4002000050020006033b8009e
:102df00015f8070001032000808040000d017800d5
:102e00000c007800c6f907000000e00013003a004b
:102e100025003700c308dd00010040003002be007d
:102e20002003be000800be000a01be00fff7070035
:102e3000a4002000050020006033b80002f807005d
:102e400002032000000141008c007800020078009d
:102e500065030700e10f4000130032008d06e80013
:102e6000110037000802be000a03be00b4af9f0085
:102e7000c5af9f00d6af9f00e7af9f0006003700a9
:102e80000800be000a01be00b0af9f00c1af9f00a6
:102e9000d2af9f00e3af9f001fb49700afb497007d
:102ea0003fb59700cfb597000f7897008040e900b5
:102eb000817f9f000004e000beff3a003fac970016
:102ec000cfac97005fad9700efad970013003700d0
:102ed0003c0090000068a300070032000d0178005c
:102ee000010320000c0078008df907000000e000cd
:102ef00006003a00060037008c007800000320002e
:102f000039030700e10f4000010032008d06e800a0
:102f10006f9897000000e900e09f9f006f9897006e
:102f20000000e000eaff3c00ffa89700f28f50008d
:102f30000300340020c1b300807f9f0002003700ef
:102f40006fd99700827f9f000f7897008000fb0069
:102f5000ffa9970081805100f1af9f000004e000bd
:102f600003003a006fa297000400e0001000320056
:102f70003c0090000068a300070032000d017800bb
:102f8000e10220000c00780065f907000000e00075
:102f900006003a00060037008c007800e0022000ae
:102fa00011030700e10f4000010032008d06e80028
:102fb0000f789700f8f807000002be000203be0079
:102fc0000800be000a01be0076050700d404070011
:102fd0000205be000004be0090b79f00a1b79f008d
:102fe000b2b79f00c3b79f00350037003c01900087
:102ff000c10a21000000fb000268a3001300320098
:103000004300dd00008040003002be002003be000f
:103010000800be000a01be0084f70700a4002000db
:10302000050020006033b80087f707000003b000f8
:103030000d017800800078000c00780038f9070056
:103040000000e00011003a00110037004300dd00ed
:10305000008040003002be002003be000800be0019
:103060000a01be0071f70700a4002000050020003f
:103070006033b80074f707000003b0008c007800dc
:10308000d9020700e10f4000010032008d06e80080
:103090008f7897000100fb004300dd00c10a21008a
:1030a000008040003002be002003be000800be00c9
:1030b0000a01be0064f707000205be000004be005e
:1030c0008f7897000140e900807f9f000104e000b5
:1030d000c6ff3a0098b79f00a9b79f00bab79f00f4
:1030e000cbb79f007fac9700110037003c009000e9
:1030f0000068a300070032000d01780001032000e2
:103100000c00780006f907000000e00006003a0015
:10311000060037008c00780000032000b202070090
:10312000e10f4000010032008d06e8000804e900cc
:103130000800e000edff3a000e38a3009e023200c6
:103140008fb297000500e0009b0234000504780070
:103150003c0090000068a300070032000d017800d9
:10316000010220000c007800edf807000000e000ec
:1031700006003a00060037008c00780000022000ac
:1031800099020700e10f4000010032008d06e800bf
:103190000804e900eeff3a00870237000e007800cd
:1031a000000cb20032003a000e00e00005003d00c5
:1031b0002fa897004005be004004be00a0af9f00ae
:1031c000120037000e48a3000b0032002fa9970011
:1031d0004200be00a2af9f000002be004fabde0067
:1031e0008603780094b79f00a5b79f00b6b79f00ed
:1031f000c7b79f0009003700afaa970045007800c5
:10320000a5af9f006104b900614db90098b79f0058
:10321000a9b79f00bab79f00cbb79f001fb0970018
:10322000afb097003fb19700cfb19700e00f5000cb
:10323000e08f5800e00f5900e08f590027003d0053
:103240003e00b3006000b8006011b8001fb29700e4
:10325000afb297003fb39700cfb39700040250007e
:1032600085825800060359008783590017003700ec
:103270000e00e00009003d002fa897004005be00a9
:103280004004be00a0af9f0098b79f00a9b79f0061
:10329000bab79f00cbb79f00100037000e48a300bd
:1032a000050032002fac97004802be006033b80022
:1032b000a8af9f0005003700afac97004900780029
:1032c000a9af9f006102b8006033b80094b79f00b7
:1032d000a5b79f00b6b79f00c7b79f00ffaa97008a
:1032e0000500e0000d003a0016002000f6af9f0038
:1032f0001fb49700afb497003fb59700cfb59700c4
:10330000e00f5400e08f5c00e00f5d00e08f5d0097
:10331000020032008004eb00f9af9f000e05780038
:103320000a0cb200baaf9f0000042000800f5500c5
:103330003400320003003c000a00e00008003200c4
:103340004800370000082000bfad9700808f55006f
:1033500014003200000c2000808f550041003a001c
:10336000450b210014c0b3003500be003501be007e
:103370001fb49700afb497003fb59700cfb5970043
:103380000040e10001c8e10002d0e10003d8e10003
:10339000330039000442e800f44f5200f2ff3a00d3
:1033a0002f00370014c0b3000001200001002000ee
:1033b0006011b8001fb49700afb497003fb59700f5
:1033c000cfb597000040e10001c8e10002d0e10064
:1033d00003d8e10022003900490020000000d0009d
:1033e0008180d2000281d2008381d2008904e90069
:1033f000faff3a000442e800f04f5200edff3a00b5
:103400001700370014c0b300800020000100200026
:103410006011b8001fb49700afb497003fb5970094
:10342000cfb597000040e10001c8e10002d0e10003
:1034300003d8e1000a003900390020000000d00064
:103440008180d2000281d2008381d2008904e90008
:10345000faff3a000442e800f54f5200edff3a004f
:10346000847f9f000f7d97000a00fb00ffad97004f
:103470008b0f500002003d008b7f9f00040037003f
:10348000ffa89700808f500001003d00f0af9f0023
:103490000fb197000200e0000400320063006700f3
:1034a000020032000201e90082b79f000ee8a3008b
:1034b000090032008fb197007faa9700848f5100d6
:1034c000030034008481510083b79f00020037005d
:1034d0008002eb0085b79f00418c200081006700cf
:1034e00000842000808f500006003a000fb3970040
:1034f0000600e000100032000603e90086b79f00d6
:103500000d003700018c200081006700008820003a
:10351000808f500008003a008fb39700e28f53006d
:10352000030034008783e90087b79f00020037005b
:103530000004eb0088b79f008f7c97000900fb0018
:103540000005eb00eaa79f008fb59700808f55001c
:103550000200340000805500e0a79f000e28a30061
:1035600060003200610167000e18a3000d003200f8
:103570003c0090000068a30005003200b10220006a
:103580000200e000300032008180e8002e003700a9
:10359000b00220000200e000350032000080e800a8
:1035a000330037000200e000090032003c009000c8
:1035b0000068a300030032000d0178000102200022
:1035c000220037008c00780000022000290037001c
:1035d000018c20008100670000882000808f50004f
:1035e00028003a003c0090000068a3000700320069
:1035f0000d017800010320000c007800c8f70700d7
:103600000000e00006003a00060037008c00780059
:103610000003200074010700e10f400001003200a8
:103620008d06e8003c0090000e0178000202b20016
:103630000068a3000a003200810720000200e000b9
:1036400001003200810520000d0178000c00780097
:10365000b3f707000000e00009003a000900370056
:10366000800720000200e0000100320080052000f9
:103670008c0078005c010700e10f4000010032007f
:103680008d06e8006fa097000000e0008b0032007c
:10369000000478003c0090000068a300070032009e
:1036a0000d017800010320000c0078009cf7070052
:1036b0000000e00006003a00060037008c007800a9
:1036c0000003200048010700e10f40000100320024
:1036d0008d06e8000804e900eeff3a00e8a79f0025
:1036e00076003700efa097000100e00016003200de
:1036f0000e38a30014003a00010478003c0090004a
:103700000068a300070032000d01780001022000cc
:103710000c00780082f707000000e00006003a0085
:10372000060037008c007800000220002e01070000
:10373000e10f4000010032008d06e8000804e900b6
:10374000eeff3a00e8a79f00610167000e18a30092
:103750000f0032003c0090000068a3000600320019
:10376000b10220000200e000010032008180e80088
:103770000d0178000d003700b00220000200e000cb
:10378000010032000080e8008c0078000e00370055
:103790000200e000100032003c0090000068a3002e
:1037a000070032000d017800010220000c007800b3
:1037b0005bf707000000e00006003a000600370053
:1037c0008c0078000002200007010700e10f400094
:1037d000010032008d06e800008c20000000670028
:1037e00001842000810f500009003a003c00900045
:1037f0000068a300030032000d01780001032000df
:10380000200037008c0078000003200027003700dc
:1038100001882000810f500028003a003c009000f1
:103820000068a300070032000d01780001032000aa
:103830000c0078003af707000000e00006003a00ac
:10384000060037008c00780000032000e600070027
:10385000e10f4000010032008d06e8003c009000be
:103860000e0178000202b2000068a3000a003200d4
:10387000810720000200e0000100320081052000e5
:103880000d0178000c00780025f707000000e0002b
:1038900009003a0009003700800720000200e0001c
:1038a00001003200800520008c007800ce00070067
:1038b000e10f4000010032008d06e8007fa997006b
:1038c0000200e900c201dd0083a79f006301b90087
:1038d00002027800f49f9f004300dd00c10a21002e
:1038e0008100400081b79f0098003700ffaa970031
:1038f0008502e900f5af9f00000420003fab970070
:10390000800f53006800320003003c000600e00016
:10391000080032007300370000082000bfab97009a
:10392000808f53004c003200000c2000808f530029
:103930006c003a000e00e0001e003d000fb0970042
:103940003004be002005be000802be000a03be000f
:103950001fb09700afb097003fb19700cfb197006d
:1039600032f50700807f9f000000fb00cf80de0063
:103970006109b9000802be000a03be0094f5070001
:103980001fb29700afb297003fb39700cfb3970035
:103990000002520081825a0002035b0083835b00b5
:1039a00094b79f00a5b79f00b6b79f00c7b79f0009
:1039b000250037000e48a3001a0032001fb29700fe
:1039c000afb297000fb397003604be002605be00c5
:1039d0000801be000400be00f4b79f0085bf9f0031
:1039e00066f40700807f9f000000fb00cf80de00b0
:1039f0000801be00620307007fb297008fba9700ec
:103a00000000520081805a000004be006055b800da
:103a100098b79f00a9b79f00bab79f00cbb79f0088
:103a2000090037008fb49700190178001fb597007f
:103a3000110009000285d800a20020001100090031
:103a40000280d800817f9f008f7d97000b43b000dc
:103a50008b7f9f0023003700300921000e58a30000
:103a600001003200200821001fb29700afb297007a
:103a70003fb39700cfb397008fa097008100e90074
:103a8000050033008703d1000683d3008582d3006d
:103a90000482d300f9ff37006f02620060427a00af
:103aa000847f9f000f0037001fb09700afb09700d2
:103ab0003fb19700cfb197007f9a97000402e900c9
:103ac000050033008301d1000281d3008180d3003f
:103ad0000080d300f9ff3700674060000043b0006a
:103ae000807f9f00bc0090008f7a97000500fb004c
:103af0000168a300070032000d0178008000780003
:103b00000c00780086f607000000e00005003a008f
:103b1000050037008c00780033000700e10f4000fb
:103b2000010032008d06e8000fa3970064035300e4
:103b300086a79f00ff9b9700e3835300f79f9f009a
:103b40000fb497006804540088b79f00ffac97003b
:103b50000900e00065ff3a000e38a30016003200ad
:103b60006fa597000a00e000130034000a047800f3
:103b70003c0090000068a300070032000d017800af
:103b8000010220000c00780065f607000000e0004c
:103b900006003a00060037008c0078000002200082
:103ba00011000700e10f4000010032008d06e8001f
:103bb0000804e900eeff3a009fa597001b4078003b
:103bc000807f9f000004e0006ef63a000d00780050
:103bd0004f0778004f06be004f05be004f04be00e1
:103be000cf03b10000000600889fbe0001047800ea
:103bf000b80090008084eb000118a3003a00320066
:103c0000180190000198a30002003a000200e000b1
:103c100035003a000190a00031049800800478003b
:103c2000f90fb2000200e00002003a002800900004
:103c3000000c7800ea8f540005003a000178a300d8
:103c400003003a0088007800d0002000e6ff07005b
:103c500018009000d8009000810f50000b00320037
:103c60000000e80010049800180078000948780067
:103c7000000ce80011c0b3002017210001487800b3
:103c8000ea8f540018003a000500370088007800d9
:103c90000940780017000700800478001200370000
:103ca000380090000088a3000f0032001801900037
:103cb000a80090004800900020f2070098009000b3
:103cc000810f500004003200380090000003b30060
:103cd000300498008084eb000000eb001004980092
:103ce00028009000000c7800090078004f04be0006
:103cf000000006000200fa00889fbe00a0ff9f009f
:103d000001047800380090000068a30033003a00f6
:103d1000e200600005003a000003b30030049800a0
:103d2000110498000080eb002e003700d8049000aa
:103d30000900e00006003a0012002000e68057006b
:103d400048009000fdf10700190498002300370097
:103d5000a80090000100e00008003a00511721007f
:103d600021049800010c78002100200051049800e3
:103d7000110498000030a000300498001801900051
:103d8000a800900048009000ecf107002800900087
:103d90008080eb0011049800aff89700014878008c
:103da000000ce8002ff89700ea4f50000b003a0093
:103db000380090000088a30008003200180190002d
:103dc000a800900048009000dcf107000000eb0024
:103dd00010049800a8009000010c7800aff897003c
:103de0000100fb004f04be000080fa000000060046
:103df00000c0da00000006002800fa00889fbe001c
:103e00008a9fbe008c9fbe000706780087866900e7
:103e10000c003b00030478008704780008f0a10040
:103e200009f0a100840f5000858f5800860f5900bb
:103e3000890f5c00030033000cf0a20001003a007f
:103e40000cf0a100fe0007006400e1005f003200fa
:103e5000780147006408e100610032006c0147000e
:103e6000748557003200be001201be003a04be0045
:103e70001a05be001e039000be0a90008503530081
:103e800006003d000004fd008104fd000205fd0068
:103e90008305fd008703ea00050378000df8a30001
:103ea0000400320060041400e0841c0060051d0062
:103eb000e0851d006022b8007d0320000d38e10080
:103ec0008006eb000b0039004433dd00f300b20044
:103ed0008301730039003700848272000d0278007c
:103ee000e10664008b85d1000a85d3008984d30064
:103ef0000884d3008703e900f7ff3b000800400077
:103f0000898048000a0149008b81490004003b0078
:103f100060001000e080180060011900e0811900c5
:103f20000358a300090032008d827200848272005f
:103f3000610260008301d1000281d3008180d3003f
:103f40000080d3000603e8001b0037000348a300ed
:103f500017003a000600e000170034000603e900ed
:103f60000d00a300000048008180480002014900c4
:103f7000838149000348a3000f003a000600e000d7
:103f8000090034000603e900000040008180480079
:103f9000020149008381490001003a000003eb005f
:103fa0000348a300f5ff32006022b800020037008a
:103fb00084827200618266007500070003f0a10030
:103fc0000cf0a70003f0a000b10037006401470027
:103fd0006408e10002003a000df8a300a9003a00cd
:103fe0003200be001201be00a90037008f1fd100b1
:103ff000e90107008f87e9000000e00000000600eb
:10400000809feb00e40107008f87e9000000e000db
:10401000000006002800fa00889fbe008a9fbe00ac
:104020008c9fbe0003866b00850007006400e100e2
:10403000440032006408e1004a0032006100e100ff
:10404000460032006108e10049003200ec064700fa
:104050006000b8003d02be003d03be00f48657007c
:104060006011b8003d04be003d05be007d03200088
:104070000b0037000000a0008d06e900130032009d
:104080000402420085824a0006034b0087834b00ee
:1040900000004000818048000201490083814900fe
:1040a0000802520089825a000a035b008b835b007e
:1040b000f0ff3b000802420089824a000a034b00dd
:1040c0008b834b008d06e900edff3a00848272007d
:1040d00086827200f707b200878272000100320008
:1040e000150020001e0490003e0b900006035400b3
:1040f000e63fb0000368a300070032000000a700fd
:104100000500a0008301d1000281d3008180d3008b
:104110000080d3000603e8008301d1000281d300b0
:104120008180d3000080d3000002eb000482d20023
:104130001700070003f0a1000cf0a70003f0a00097
:1041400053003700640247006408e1004d0032006c
:104150003400be003401be00f6ff37006108e10004
:10416000480032006011b8006000b800f1ff37006d
:1041700003ff270002002000fbff3700801feb0039
:10418000850107008f87e9000000e00000000600bd
:104190001800200057002000080453000d003d00c7
:1041a0000600200097fc2f000740e1001e003400ad
:1041b00084827200610260008301d1000281d30019
:1041c0008180d3000080d3000804e800f8ff3a00a3
:1041d00047002000610460000504740004046400ca
:1041e0000d00320061004000e0804800600149009d
:1041f000e081490003b8a500070032000603e8008b
:104200006538e10004003a008301d1000281d30047
:104210008180d3000080d300f87f20000830e100c7
:1042200003003500080378006000b8006011b80092
:104230004433dd00f300b200830173000000060088
:10424000680447000294be000094be00fc044700ce
:104250008694be008494be00090078009701070090
:10426000080078009501070099007800814f7000e0
:104270000b003b000800be00700107004f00b100ba
:1042800003003700f3ff2700f2ff2f006110b90091
:104290004f06be004f05be004f04be000080fa006e
:1042a0000000060081037800c4f107000001be0091
:1042b0006000b8000478a30013003a006220e10017
:1042c00015003e000d0039008301d1000281d300aa
:1042d0008180d3008301d1000281d3008180d3008b
:1042e0008301d1000281d3008180d3000538b00062
:1042f000c42add00f300b2008381720007f0a7003a
:1043000003f0a00000000600f3ff2700f2ff2f00db
:104310006110b900fbff370003ff2700f7ff3700ec
:104320001400fa00889fbe008a9fbe008c9fbe00ca
:104330000004be000205be00680047000a90be00ef
:104340000890be005d0107000070a7000bf0a100ff
:104350000bf8a30020003a009e0990000e0990007f
:10436000fe0090006e0090009e02900034432000fa
:1043700084825200c6ff32000a003c00b4fc2f00c9
:104380000428e100140034008301d1000281d3002d
:104390008180d3000080d3008502e800faff3a0054
:1043a000bbff3700b40020000428e10007003c00f8
:1043b00000004000818048000201490083814900db
:1043c0008502e900faff3a00b1ff37000300280038
:1043d00002002000010037006011b8006000b80042
:1043e000abff37001400fa00889fbe008a9fbe0012
:1043f0008c9fbe000004be000205be00680047009e
:104400000a90be000890be002c0107000070a700b3
:104410000bf0a1000bf8a30016003a009e029000da
:104420003043200080825200b0fe2f000028e100bf
:104430000d003c00b0fc2f000028e1000d0034000e
:104440001e0990008e0890007e0090000501b000cb
:104450000201d1008180d3000080d3008502e800f2
:10446000fbff3a008aff370001002800000020000f
:1044700087ff37006000b80085ff3700889fbe00c7
:104480000082700004027100048271002400320076
:1044900036432000c50020008383cf000a00390086
:1044a0000541b1008283cf00070039000541b1000a
:1044b0008183cf00040039000541b1008083cf0023
:1044c000010039000541b10085c353006022b800e6
:1044d000120032000a003b00848272006102600018
:1044e0008301d1000281d3008180d3000080d300fa
:1044f0000603e8008743e800f7ff3a0007003700ab
:104500000000400081804800020149008381490089
:104510000603e9008743e900f9ff3a001cff0700a2
:104520004f04be00000006006011b800d3ff370042
:104530001400fa00889fbe008a9fbe008c9fbe00b8
:10454000040678000004be000205be0068004700b3
:104550000a90be000890be00d80007006200e1008b
:104560000800be000a01be00040020000b003a0053
:104570001e029000e43fb1006e009000fe0090002b
:104580000e0990009e099000f300b20005fe230082
:10459000858171000bf0a70003f0a000040e7800e5
:1045a0003bff37002800fa00889fbe008a9fbe00ac
:1045b0008c9fbe0003866b0021ff07000028a3002c
:1045c00064003a000128a30067003a000008a30035
:1045d00062003a000108a30065003a001e00900046
:1045e000be08900081064000ed3fb100f480570006
:1045f000ee019000111ab8008e099000311bb8002e
:104600009e099000311cb800511db800f485570078
:1046100046000700fe0190003a0007008b85e80085
:104620003e0007008e09900040000700ee01900058
:10463000340007008b85e800380007008e099000e1
:10464000400007009e0990001b18b8008904400034
:104650000a854800fe019000340007008b85e800c1
:1046600038000700ee019000300007008e0990002e
:104670001b18b800890440000a8548000a98a30066
:1046800008003a000402420085824a0006034b00fb
:1046900087834b0008044c0089844c000a054d00b8
:1046a0008d06e90084827200850273004c3add00b9
:1046b000850272000100320015002000443ade003d
:1046c0001400b2004538de00cb45dd000b00700061
:1046d000c540de00cb4ddd008b8070004549de001b
:1046e000cb55dd000b017100c551de000d037800d4
:1046f000a7fe070003f0a1000cf0a70003f0a00044
:10470000e3fe37001b18b80085024000068348000e
:10471000e0834b0060044c00070037001b18b80012
:104720000603400087834800faff37001b18b800d3
:104730008703400008844800e0844c0060054d0079
:10474000000006001b18b8000804400089844800d7
:10475000faff37000108a300cafe3a005800be0065
:104760005801be00e3ff37000008a300c5fe3a0071
:1047700009047800f9ff370007f0a2009efd37001a
:10478000020ab900001bb9000200b8008100420013
:104790008100430000000600889fbe008a9fbe0083
:1047a0008c9fbe000404be000605be00809fbe00b4
:1047b000829fbe002f000700040678000800be009c
:1047c0000a01be002b000700840678004f03be00dc
:1047d0004f02be008d4f76007fb09700130033006c
:1047e000f0ff2f008b8f6b0006003b000d0666006c
:1047f0000c00a7000a00370007f0a60010002000f8
:104800000a003700880f5200898f5a008a0f5b0018
:104810008b8f5b00030039001000200001003e0078
:104820000000200007f0a7000000ea004f06be00cd
:104830004f05be004f04be0000000600e4824000a9
:104840001078a30007003200640240001178a30032
:104850003400be001401be00040032000330a70083
:10486000000006003500be001501be000330a000a8
:104870000000060005ff27000582610007003200e6
:104880000428e100010032002400050006000700b2
:1048900001003a004400050004080500020007007a
:1048a000f9ff3a00140005006f8261008102700078
:1048b0008502710085027200000006008000780009
:1048c0005002be005003be004439de00f700b200c3
:1048d000f37f200003016100090032000218e100ab
:1048e00016003a0085017200830173008381730012
:1048f0000008200015003a00400020001300370097
:1049000085017200830173008381730005003a0002
:1049100004a8be0006a8be00100020000b0037004f
:104920000201e9000402420085824a0006034b00ae
:1049300087834b000748a300f9ff32000740a0001f
:1049400004a8be0006a8be00200020008000980039
:0849500092009800000006002f
:020000040000fa
:104958002044000045420000554700003a2000006e
:1049680025730000282900003a200000496e000045
:1049780069740000696100006c6900007a650000d4
:10498800206300006f6d0000706c0000657400000b
:10499800652e00002e2e00000a00000020440000b2
:1049a80045420000554700003a20000025730000ea
:1049b80028250000752c000020250000752c00001b
:1049c80020250000752c000020250000752c000013
:1049d80020250000752c0000202500007529000006
:1049e8000a000000736f0000757200006365000024
:1049f8002f43000075620000654300006f6e0000e1
:104a0800747200006f6c00002f7300007263000066
:104a18002f4c0000656400004375000062650000cb
:104a28002e63000000440000454200005547000086
:104a38003a200000257300003a250000643a00007f
:104a480025730000282900003a2000004c4500008a
:104a58004443000055420000455f00004d490000f6
:104a68004e5f0000585900005a2000003c3d0000ed
:104a7800205f00007820000026260000204c00005f
:104a88004544000043550000424500005f4d0000ca
:104a9800415800005f580000595a0000203e0000ad
:104aa8003d2000005f780000202d00002d20000030
:104ab800617300007365000072740000696f000084
:104ac8006e20000066610000696c000065640000eb
:104ad8002c200000707200006f67000072610000f7
:104ae8006d200000686100006c74000065640000bf
:104af8002e2e00002e0a000000440000454200004f
:104b0800554700003a200000257300003a250000b0
:104b1800643a000025730000282900003a200000ac
:104b28004c4500004443000055420000455f00002a
:104b38004d4900004e5f0000585900005a200000ff
:104b48003c3d0000205f0000792000002626000080
:104b5800204c000045440000435500004245000039
:104b68005f4d0000415800005f580000595a00008e
:104b7800203e00003d2000005f790000202d00004d
:104b88002d2000006173000073650000727400003e
:104b9800696f00006e20000066610000696c00000b
:104ba800656400002c200000707200006f67000030
:104bb800726100006d200000686100006c740000e4
:104bc800656400002e2e00002e0a0000004400003c
:104bd80045420000554700003a20000025730000b8
:104be8003a250000643a00002573000028290000d7
:104bf8003a2000004c4500004443000055420000a4
:104c0800455f00004d4900004e5f00005859000004
:104c18005a2000003c3d0000205f00007a20000080
:104c280026260000204c00004544000043550000a3
:104c3800424500005f4d0000415800005f580000e9
:104c4800595a0000203e00003d2000005f7a000015
:104c5800202d00002d200000617300007365000006
:104c680072740000696f00006e2000006661000029
:104c7800696c0000656400002c2000007072000060
:104c88006f670000726100006d200000686100001d
:104c98006c740000656400002e2e00002e0a0000cf
:104ca8000044000045420000554700003a2000003b
:104cb800257300003a250000643a000025730000bf
:104cc800282900003a2000004c4500004443000019
:104cd80055420000455f00004d4900004e5f00004e
:104ce800494e0000544500004e530000495400004e
:104cf800592000003c3d0000205f00007265000064
:104d08006420000026260000204c000045440000d6
:104d180043550000424500005f4d00004158000027
:104d28005f4900004e540000454e00005349000002
:104d380054590000203e00003d2000005f72000032
:104d480065640000202d00002d2000006173000024
:104d58007365000072740000696f00006e20000027
:104d680066610000696c0000656400002c2000008a
:104d7800707200006f670000726100006d20000013
:104d8800686100006c740000656400002e2e00004d
:104d98002e0a00000044000045420000554700006c
:104da8003a200000257300003a250000643a00000c
:104db80025730000282900003a2000004c45000017
:104dc8004443000055420000455f00004d49000083
:104dd8004e5f0000494e0000544500004e5300004d
:104de80049540000592000003c3d0000205f0000ad
:104df80067720000656500006e200000262600002e
:104e0800204c000045440000435500004245000086
:104e18005f4d0000415800005f4900004e540000fb
:104e2800454e00005349000054590000203e000040
:104e38003d2000005f67000072650000656e00009d
:104e4800202d00002d200000617300007365000014
:104e580072740000696f00006e2000006661000037
:104e6800696c0000656400002c200000707200006e
:104e78006f670000726100006d200000686100002b
:104e88006c740000656400002e2e00002e0a0000dd
:104e98000044000045420000554700003a20000049
:104ea800257300003a250000643a000025730000cd
:104eb800282900003a2000004c4500004443000027
:104ec80055420000455f00004d4900004e5f00005c
:104ed800494e0000544500004e530000495400005c
:104ee800592000003c3d0000205f0000626c00007b
:104ef8007565000020260000262000004c450000b3
:104f08004443000055420000455f00004d41000049
:104f1800585f0000494e0000544500004e53000001
:104f280049540000592000003e3d0000205f000069
:104f3800626c000075650000202d00002d20000027
:104f4800617300007365000072740000696f0000ef
:104f58006e20000066610000696c00006564000056
:104f68002c200000707200006f6700007261000062
:104f78006d200000686100006c740000656400002a
:104f88002e2e00002e0a00000020000044450000dc
:104f980042550000473a0000202500007328000011
:104fa800290a000000200000200000005f680000bf
:104fb800656c0000706500007250000072690000a6
:104fc8006e7400004279000074650000004c000017
:104fd8006564000043750000626500005f700000b2
:104fe800726900006e740000486500007852000085
:104ff8006561000064440000617400006100000005
:105008004c6500006443000075620000655f0000a5
:1050180070720000696e0000744800006578000036
:105028005772000069740000654400006174000054
:10503800610000004c6500006443000075620000d8
:10504800655f00007265000073650000744400002d
:1050580061740000610000004c65000064430000ba
:1050680075620000655f00007570000064610000f3
:105078007465000055730000696e00006743000006
:105088006f700000790000004c6500006443000068
:1050980075620000655f00007570000064610000c3
:1050a80074650000004c0000656400004375000052
:1050b800626500005f7300006574000050690000bd
:1050c800786500006c0000004c6500006443000037
:1050d80075620000655f0000696e00006974000079
:1050e8000000000020440000454200005547000031
:1050f8003a20000025730000282900003a2000000b
:10510800496e000069740000696100006c69000064
:105118007a650000206300006f6d0000706c00006d
:1051280065740000652e00002e2e00000a000000a5
:105138002044000045420000554700003a20000086
:1051480025730000282900000a0000002044000000
:1051580045420000554700003a2000002573000032
:1051680028250000752c0000202500006c75000023
:10517800290a0000007300006f75000072630000c8
:10518800652f00004c690000627200006172000027
:1051980079460000696c0000657300002f730000f9
:1051a800726300002f420000757a00007a650000e3
:1051b800722e0000630000004445000042550000c4
:1051c800473a000020250000733a000025640000db
:1051d8003a25000073280000293a0000205f0000eb
:1051e8006672000065710000756500006e6300005e
:1051f800792000003e3d000020420000555a000082
:105208005a450000525f00004d4900004e5f000003
:105218004652000045510000554500004e4300002d
:105228005920000026260000205f0000667200005a
:1052380065710000756500006e630000792000004c
:105248003c3d000020420000555a00005a4500002d
:10525800525f00004d410000585f000046520000b8
:1052680045510000554500004e43000059200000fc
:105278002d2d00002061000073730000657200008e
:10528800746900006f6e000020660000616900000c
:105298006c650000642c000020700000726f000034
:1052a80067720000616d000020680000616c0000fa
:1052b80074650000642e00002e2e00000a00000015
:1052c8004445000042550000473a000020250000f0
:1052d800733a0000256400003a2500007328000096
:1052e800293a0000205f0000746900006d65000025
:1052f800203e00003d200000425500005a5a0000a0
:10530800455200005f4d0000494e00005f54000008
:10531800494d00004520000026260000205f0000bf
:10532800746900006d650000203c00003d2000000d
:10533800425500005a5a0000455200005f4d0000d7
:10534800415800005f540000494d0000452000000e
:105358002d2d0000206100007373000065720000ad
:10536800746900006f6e000020660000616900002b
:105378006c650000642c000020700000726f000053
:1053880067720000616d000020680000616c000019
:1053980074650000642e00002e2e00000a00000034
:1053a800427500007a7a0000657200005f730000a1
:1053b8006574000000420000757a00007a650000fc
:1053c800725f0000736800006f7200007442000092
:1053d8006565000070000000427500007a7a0000e0
:1053e800657200005f6200006565000070000000e3
:1053f800427500007a7a0000657200005f6900005b
:105408006e69000074000000020800000208000035
:10541800020b0000204400004542000055470000f0
:105428003a20000025730000282900003a200000d7
:10543800496e000069740000696100006c69000031
:105448007a650000206300006f6d0000706c00003a
:1054580065740000652e00002e2e00000a00000072
:105468002044000045420000554700003a20000053
:105478002573000028250000702900000a0000009c
:105488002044000045420000554700003a20000033
:1054980025730000282900003a200000704300000e
:1054a80075620000654400006174000061520000ec
:1054b80065610000643a000020250000702c00009f
:1054c8002070000043750000626500004461000020
:1054d800746100005772000069740000653a0000aa
:1054e80020250000700a000000200000444500004c
:1054f80042550000473a00002025000073280000ac
:10550800257000002c20000025700000290a0000ea
:1055180000700000437500006265000044610000ef
:10552800746100005b250000755d00005b250000cc
:10553800755d00002e7200006564000020200000e8
:105548003a20000030780000252e0000386c00005a
:10555800580a0000007000004375000062650000f2
:1055680044610000746100005b250000755d000067
:105578005b250000755d00002e6700007265000065
:10558800656e00003a20000030780000252e0000eb
:10559800386c0000580a00000070000043750000d5
:1055a8006265000044610000746100005b25000032
:1055b800755d00005b250000755d00002e6200002f
:1055c8006c750000652000003a200000307800006b
:1055d800252e0000386c0000580a00000043000027
:1055e80075620000654300006f6e00007472000071
:1055f8006f6c000044610000746100005f7000007f
:10560800726900006e74000048650000784300006d
:1056180075620000654400006174000061000000cc
:105628004375000062650000436f00006e7400005f
:10563800726f00006c44000061740000615f00003c
:10564800636f000070790000437500006265000018
:1056580044610000746100000043000075620000ae
:10566800654300006f6e0000747200006f6c0000ec
:1056780044610000746100005f72000065730000ff
:105688006574000043750000626500004461000015
:10569800746100000043000075620000654300006b
:1056a8006f6e0000747200006f6c000044610000af
:1056b800746100005f730000776900007463000084
:1056c80068430000756200006544000061740000d2
:1056d800610000004375000062650000436f000030
:1056e8006e740000726f00006c440000617400006a
:1056f800615f0000696e000069740000000000002e
:105708007a0f000020440000454200005547000081
:105718003a20000025730000282900003a200000e4
:10572800496e000069740000696100006c6900003e
:105738007a650000206300006f6d0000706c000047
:1057480065740000652e00002e2e00000a2000005f
:105758004445000042550000473a0000202500005b
:1057680073280000293a00002042000061750000fb
:1057780064200000526100007465000020450000ac
:10578800727200006f720000202800006d75000022
:10579800737400002062000065200000626500004c
:1057a8006c6f0000772000003525000025290000d7
:1057b8003a200000252e0000326600002525000052
:1057c8000a00000030310000323300003435000098
:1057d80036370000383900004142000043440000d9
:1057e80045460000007300006f75000072630000fa
:1057f800652f00004c6900006272000061720000b1
:1058080079460000696c0000657300002f73000082
:10581800726300002f55000061720000742e0000b2
:10582800630000000a20000045520000524f0000ab
:10583800523a000020250000733a00002564000059
:105848003a25000073280000293a00002041000092
:105858006e20000055410000525400003120000025
:105868006f76000065720000727500006e200000ff
:1058780065720000726f000072200000686100000d
:105888007320000062650000656e0000206400005f
:10589800657400006563000074650000640a000018
:1058a8000a0000005f55000031520000584900000e
:1058b8006e7400006572000072750000707400005c
:1058c8000055000061720000743100005f6700003d
:1058d80065740000730000005561000072740000d8
:1058e800315f0000696e000069740000000000006c
:1058f8002044000045420000554700003a200000bf
:1059080025730000282900003a200000496e000095
:1059180069740000696100006c6900007a65000024
:10592800206300006f6d0000706c0000657400005b
:10593800652e00002e2e00000a0000002044000002
:1059480045420000554700003a200000257300003a
:1059580028250000752900000a00000020440000e6
:1059680045420000554700003a200000257300001a
:1059780028250000702c000020250000702c000055
:1059880020250000752c0000202500007529000046
:105998000a0000002044000045420000554700006e
:1059a8003a20000025730000282900000a000000a2
:1059b8004c61000079650000724300006f6e0000c2
:1059c800747200006f6c00005f6100006c6c000076
:1059d8004f6e0000004c0000617900006572000005
:1059e800436f00006e740000726f00006c5f00006f
:1059f800616c00006c4f000066660000004c0000ff
:105a08006179000065720000436f00006e74000049
:105a1800726f00006c5f0000757000006461000028
:105a280074650000004c0000617900006572000098
:105a3800436f00006e740000726f00006c5f00001e
:105a480073650000744c0000617900006572000005
:105a5800004c00006179000065720000436f00008f
:105a68006e740000726f00006c5f0000696e0000c9
:105a78006974000000000000204400004542000056
:105a8800554700003a200000257300002825000033
:105a9800752c000020250000752c00002025000032
:105aa800752c000020250000752c00002025000022
:105ab800752900000a00000020440000454200004b
